{
  "_format": "hh-sol-artifact-1",
  "contractName": "PolygonZkEVMBridge",
  "sourceName": "contracts/PolygonZkEVMBridge.sol",
  "abi": [
    {
      "inputs": [],
      "name": "AlreadyClaimed",
      "type": "error"
    },
    {
      "inputs": [],
      "name": "AmountDoesNotMatchMsgValue",
      "type": "error"
    },
    {
      "inputs": [],
      "name": "DestinationNetworkInvalid",
      "type": "error"
    },
    {
      "inputs": [],
      "name": "EtherTransferFailed",
      "type": "error"
    },
    {
      "inputs": [],
      "name": "GlobalExitRootInvalid",
      "type": "error"
    },
    {
      "inputs": [],
      "name": "InvalidSmtProof",
      "type": "error"
    },
    {
      "inputs": [],
      "name": "MerkleTreeFull",
      "type": "error"
    },
    {
      "inputs": [],
      "name": "MessageFailed",
      "type": "error"
    },
    {
      "inputs": [],
      "name": "MsgValueNotZero",
      "type": "error"
    },
    {
      "inputs": [],
      "name": "NotValidAmount",
      "type": "error"
    },
    {
      "inputs": [],
      "name": "NotValidOwner",
      "type": "error"
    },
    {
      "inputs": [],
      "name": "NotValidSignature",
      "type": "error"
    },
    {
      "inputs": [],
      "name": "NotValidSpender",
      "type": "error"
    },
    {
      "inputs": [],
      "name": "OnlyAdmin",
      "type": "error"
    },
    {
      "inputs": [],
      "name": "OnlyEmergencyState",
      "type": "error"
    },
    {
      "inputs": [],
      "name": "OnlyNotEmergencyState",
      "type": "error"
    },
    {
      "inputs": [],
      "name": "OnlyPolygonZkEVM",
      "type": "error"
    },
    {
      "anonymous": false,
      "inputs": [
        {
          "indexed": false,
          "internalType": "uint8",
          "name": "leafType",
          "type": "uint8"
        },
        {
          "indexed": false,
          "internalType": "uint32",
          "name": "originNetwork",
          "type": "uint32"
        },
        {
          "indexed": false,
          "internalType": "address",
          "name": "originAddress",
          "type": "address"
        },
        {
          "indexed": false,
          "internalType": "uint32",
          "name": "destinationNetwork",
          "type": "uint32"
        },
        {
          "indexed": false,
          "internalType": "address",
          "name": "destinationAddress",
          "type": "address"
        },
        {
          "indexed": false,
          "internalType": "uint256",
          "name": "amount",
          "type": "uint256"
        },
        {
          "indexed": false,
          "internalType": "bytes",
          "name": "metadata",
          "type": "bytes"
        },
        {
          "indexed": false,
          "internalType": "uint32",
          "name": "depositCount",
          "type": "uint32"
        }
      ],
      "name": "BridgeEvent",
      "type": "event"
    },
    {
      "anonymous": false,
      "inputs": [
        {
          "indexed": false,
          "internalType": "uint32",
          "name": "index",
          "type": "uint32"
        },
        {
          "indexed": false,
          "internalType": "uint32",
          "name": "originNetwork",
          "type": "uint32"
        },
        {
          "indexed": false,
          "internalType": "address",
          "name": "originAddress",
          "type": "address"
        },
        {
          "indexed": false,
          "internalType": "address",
          "name": "destinationAddress",
          "type": "address"
        },
        {
          "indexed": false,
          "internalType": "uint256",
          "name": "amount",
          "type": "uint256"
        }
      ],
      "name": "ClaimEvent",
      "type": "event"
    },
    {
      "anonymous": false,
      "inputs": [],
      "name": "EmergencyStateActivated",
      "type": "event"
    },
    {
      "anonymous": false,
      "inputs": [],
      "name": "EmergencyStateDeactivated",
      "type": "event"
    },
    {
      "anonymous": false,
      "inputs": [
        {
          "indexed": false,
          "internalType": "uint8",
          "name": "version",
          "type": "uint8"
        }
      ],
      "name": "Initialized",
      "type": "event"
    },
    {
      "anonymous": false,
      "inputs": [
        {
          "indexed": false,
          "internalType": "uint32",
          "name": "originNetwork",
          "type": "uint32"
        },
        {
          "indexed": false,
          "internalType": "address",
          "name": "originTokenAddress",
          "type": "address"
        },
        {
          "indexed": false,
          "internalType": "address",
          "name": "wrappedTokenAddress",
          "type": "address"
        },
        {
          "indexed": false,
          "internalType": "bytes",
          "name": "metadata",
          "type": "bytes"
        }
      ],
      "name": "NewWrappedToken",
      "type": "event"
    },
    {
      "inputs": [],
      "name": "activateEmergencyState",
      "outputs": [],
      "stateMutability": "nonpayable",
      "type": "function"
    },
    {
      "inputs": [],
      "name": "admin",
      "outputs": [
        {
          "internalType": "address",
          "name": "",
          "type": "address"
        }
      ],
      "stateMutability": "view",
      "type": "function"
    },
    {
      "inputs": [
        {
          "internalType": "uint32",
          "name": "destinationNetwork",
          "type": "uint32"
        },
        {
          "internalType": "address",
          "name": "destinationAddress",
          "type": "address"
        },
        {
          "internalType": "uint256",
          "name": "amount",
          "type": "uint256"
        },
        {
          "internalType": "address",
          "name": "token",
          "type": "address"
        },
        {
          "internalType": "bool",
          "name": "forceUpdateGlobalExitRoot",
          "type": "bool"
        },
        {
          "internalType": "bytes",
          "name": "permitData",
          "type": "bytes"
        }
      ],
      "name": "bridgeAsset",
      "outputs": [],
      "stateMutability": "payable",
      "type": "function"
    },
    {
      "inputs": [],
      "name": "bridgeFee",
      "outputs": [
        {
          "internalType": "uint256",
          "name": "",
          "type": "uint256"
        }
      ],
      "stateMutability": "view",
      "type": "function"
    },
    {
      "inputs": [
        {
          "internalType": "bytes32[32]",
          "name": "smtProof",
          "type": "bytes32[32]"
        },
        {
          "internalType": "uint32",
          "name": "index",
          "type": "uint32"
        },
        {
          "internalType": "bytes32",
          "name": "mainnetExitRoot",
          "type": "bytes32"
        },
        {
          "internalType": "bytes32",
          "name": "rollupExitRoot",
          "type": "bytes32"
        },
        {
          "internalType": "uint32",
          "name": "originNetwork",
          "type": "uint32"
        },
        {
          "internalType": "address",
          "name": "originTokenAddress",
          "type": "address"
        },
        {
          "internalType": "uint32",
          "name": "destinationNetwork",
          "type": "uint32"
        },
        {
          "internalType": "address",
          "name": "destinationAddress",
          "type": "address"
        },
        {
          "internalType": "uint256",
          "name": "amount",
          "type": "uint256"
        },
        {
          "internalType": "bytes",
          "name": "metadata",
          "type": "bytes"
        }
      ],
      "name": "claimAsset",
      "outputs": [],
      "stateMutability": "nonpayable",
      "type": "function"
    },
    {
      "inputs": [
        {
          "internalType": "uint256",
          "name": "",
          "type": "uint256"
        }
      ],
      "name": "claimedBitMap",
      "outputs": [
        {
          "internalType": "uint256",
          "name": "",
          "type": "uint256"
        }
      ],
      "stateMutability": "view",
      "type": "function"
    },
    {
      "inputs": [],
      "name": "deactivateEmergencyState",
      "outputs": [],
      "stateMutability": "nonpayable",
      "type": "function"
    },
    {
      "inputs": [],
      "name": "depositCount",
      "outputs": [
        {
          "internalType": "uint256",
          "name": "",
          "type": "uint256"
        }
      ],
      "stateMutability": "view",
      "type": "function"
    },
    {
      "inputs": [],
      "name": "feeAddress",
      "outputs": [
        {
          "internalType": "address",
          "name": "",
          "type": "address"
        }
      ],
      "stateMutability": "view",
      "type": "function"
    },
    {
      "inputs": [],
      "name": "gasTokenAddress",
      "outputs": [
        {
          "internalType": "address",
          "name": "",
          "type": "address"
        }
      ],
      "stateMutability": "view",
      "type": "function"
    },
    {
      "inputs": [],
      "name": "gasTokenMetadata",
      "outputs": [
        {
          "internalType": "bytes",
          "name": "",
          "type": "bytes"
        }
      ],
      "stateMutability": "view",
      "type": "function"
    },
    {
      "inputs": [],
      "name": "getDepositRoot",
      "outputs": [
        {
          "internalType": "bytes32",
          "name": "",
          "type": "bytes32"
        }
      ],
      "stateMutability": "view",
      "type": "function"
    },
    {
      "inputs": [
        {
          "internalType": "uint8",
          "name": "leafType",
          "type": "uint8"
        },
        {
          "internalType": "uint32",
          "name": "originNetwork",
          "type": "uint32"
        },
        {
          "internalType": "address",
          "name": "originAddress",
          "type": "address"
        },
        {
          "internalType": "uint32",
          "name": "destinationNetwork",
          "type": "uint32"
        },
        {
          "internalType": "address",
          "name": "destinationAddress",
          "type": "address"
        },
        {
          "internalType": "uint256",
          "name": "amount",
          "type": "uint256"
        },
        {
          "internalType": "bytes32",
          "name": "metadataHash",
          "type": "bytes32"
        }
      ],
      "name": "getLeafValue",
      "outputs": [
        {
          "internalType": "bytes32",
          "name": "",
          "type": "bytes32"
        }
      ],
      "stateMutability": "pure",
      "type": "function"
    },
    {
      "inputs": [
        {
          "internalType": "uint32",
          "name": "originNetwork",
          "type": "uint32"
        },
        {
          "internalType": "address",
          "name": "originTokenAddress",
          "type": "address"
        }
      ],
      "name": "getTokenWrappedAddress",
      "outputs": [
        {
          "internalType": "address",
          "name": "",
          "type": "address"
        }
      ],
      "stateMutability": "view",
      "type": "function"
    },
    {
      "inputs": [],
      "name": "globalExitRootManager",
      "outputs": [
        {
          "internalType": "contract IBasePolygonZkEVMGlobalExitRoot",
          "name": "",
          "type": "address"
        }
      ],
      "stateMutability": "view",
      "type": "function"
    },
    {
      "inputs": [
        {
          "internalType": "uint32",
          "name": "_networkID",
          "type": "uint32"
        },
        {
          "internalType": "contract IBasePolygonZkEVMGlobalExitRoot",
          "name": "_globalExitRootManager",
          "type": "address"
        },
        {
          "internalType": "address",
          "name": "_polygonZkEVMaddress",
          "type": "address"
        },
        {
          "internalType": "address",
          "name": "_admin",
          "type": "address"
        },
        {
          "internalType": "address",
          "name": "_gasTokenAddress",
          "type": "address"
        },
        {
          "internalType": "bytes",
          "name": "_gasTokenMetadata",
          "type": "bytes"
        }
      ],
      "name": "initialize",
      "outputs": [],
      "stateMutability": "nonpayable",
      "type": "function"
    },
    {
      "inputs": [
        {
          "internalType": "uint256",
          "name": "index",
          "type": "uint256"
        }
      ],
      "name": "isClaimed",
      "outputs": [
        {
          "internalType": "bool",
          "name": "",
          "type": "bool"
        }
      ],
      "stateMutability": "view",
      "type": "function"
    },
    {
      "inputs": [],
      "name": "isEmergencyState",
      "outputs": [
        {
          "internalType": "bool",
          "name": "",
          "type": "bool"
        }
      ],
      "stateMutability": "view",
      "type": "function"
    },
    {
      "inputs": [],
      "name": "lastUpdatedDepositCount",
      "outputs": [
        {
          "internalType": "uint32",
          "name": "",
          "type": "uint32"
        }
      ],
      "stateMutability": "view",
      "type": "function"
    },
    {
      "inputs": [],
      "name": "networkID",
      "outputs": [
        {
          "internalType": "uint32",
          "name": "",
          "type": "uint32"
        }
      ],
      "stateMutability": "view",
      "type": "function"
    },
    {
      "inputs": [],
      "name": "polygonZkEVMaddress",
      "outputs": [
        {
          "internalType": "address",
          "name": "",
          "type": "address"
        }
      ],
      "stateMutability": "view",
      "type": "function"
    },
    {
      "inputs": [
        {
          "internalType": "uint32",
          "name": "originNetwork",
          "type": "uint32"
        },
        {
          "internalType": "address",
          "name": "originTokenAddress",
          "type": "address"
        },
        {
          "internalType": "string",
          "name": "name",
          "type": "string"
        },
        {
          "internalType": "string",
          "name": "symbol",
          "type": "string"
        },
        {
          "internalType": "uint8",
          "name": "decimals",
          "type": "uint8"
        }
      ],
      "name": "precalculatedWrapperAddress",
      "outputs": [
        {
          "internalType": "address",
          "name": "",
          "type": "address"
        }
      ],
      "stateMutability": "view",
      "type": "function"
    },
    {
      "inputs": [
        {
          "internalType": "address",
          "name": "_feeAddress",
          "type": "address"
        },
        {
          "internalType": "uint256",
          "name": "_bridgeFee",
          "type": "uint256"
        }
      ],
      "name": "setBridgeSettingsFee",
      "outputs": [],
      "stateMutability": "nonpayable",
      "type": "function"
    },
    {
      "inputs": [
        {
          "internalType": "bytes32",
          "name": "",
          "type": "bytes32"
        }
      ],
      "name": "tokenInfoToWrappedToken",
      "outputs": [
        {
          "internalType": "address",
          "name": "",
          "type": "address"
        }
      ],
      "stateMutability": "view",
      "type": "function"
    },
    {
      "inputs": [],
      "name": "updateGlobalExitRoot",
      "outputs": [],
      "stateMutability": "nonpayable",
      "type": "function"
    },
    {
      "inputs": [
        {
          "internalType": "bytes32",
          "name": "leafHash",
          "type": "bytes32"
        },
        {
          "internalType": "bytes32[32]",
          "name": "smtProof",
          "type": "bytes32[32]"
        },
        {
          "internalType": "uint32",
          "name": "index",
          "type": "uint32"
        },
        {
          "internalType": "bytes32",
          "name": "root",
          "type": "bytes32"
        }
      ],
      "name": "verifyMerkleProof",
      "outputs": [
        {
          "internalType": "bool",
          "name": "",
          "type": "bool"
        }
      ],
      "stateMutability": "pure",
      "type": "function"
    },
    {
      "inputs": [
        {
          "internalType": "address",
          "name": "",
          "type": "address"
        }
      ],
      "name": "wrappedTokenToTokenInfo",
      "outputs": [
        {
          "internalType": "uint32",
          "name": "originNetwork",
          "type": "uint32"
        },
        {
          "internalType": "address",
          "name": "originTokenAddress",
          "type": "address"
        }
      ],
      "stateMutability": "view",
      "type": "function"
    }
  ],
  "bytecode": "0x608060405234801561001057600080fd5b50615eb6806100206000396000f3fe608060405260043610620001cf5760003560e01c806379e2cf9711620000ff578063be5831c71162000095578063dbc16976116200006c578063dbc1697614620006ef578063ee25560b1462000707578063f851a4401462000738578063fb570834146200076757600080fd5b8063be5831c71462000664578063cd58657914620006a0578063d02103ca14620006b757600080fd5b80639e34070f11620000d65780639e34070f146200059b578063a17579c114620005e0578063aaa13cc21462000605578063bab161bf146200062a57600080fd5b806379e2cf97146200052457806381b1c174146200053c57806382b12dd7146200058357600080fd5b8063318aee3d11620001755780633c351e10116200014c5780633c351e1014620003ad5780633e19704314620003dc5780634127535814620004d0578063787e05da14620004ff57600080fd5b8063318aee3d14620002dd57806334ac9cf214620003665780633ae05047146200039557600080fd5b806327aef4e811620001aa57806327aef4e8146200026a5780632cffd02e14620002915780632dfdf0b514620002b657600080fd5b806315064c9614620001d45780632072f6c5146200020557806322e95f2c146200021f575b600080fd5b348015620001e157600080fd5b50606854620001f09060ff1681565b60405190151581526020015b60405180910390f35b3480156200021257600080fd5b506200021d6200078c565b005b3480156200022c57600080fd5b50620002446200023e366004620033d9565b620007ea565b60405173ffffffffffffffffffffffffffffffffffffffff9091168152602001620001fc565b3480156200027757600080fd5b50620002826200088d565b604051620001fc919062003487565b3480156200029e57600080fd5b506200021d620002b036600462003502565b62000923565b348015620002c357600080fd5b50620002ce60535481565b604051908152602001620001fc565b348015620002ea57600080fd5b5062000334620002fc366004620035e8565b606b6020526000908152604090205463ffffffff811690640100000000900473ffffffffffffffffffffffffffffffffffffffff1682565b6040805163ffffffff909316835273ffffffffffffffffffffffffffffffffffffffff909116602083015201620001fc565b3480156200037357600080fd5b50606c54620002449073ffffffffffffffffffffffffffffffffffffffff1681565b348015620003a257600080fd5b50620002ce62000ec7565b348015620003ba57600080fd5b50607054620002449073ffffffffffffffffffffffffffffffffffffffff1681565b348015620003e957600080fd5b50620002ce620003fb36600462003618565b6040517fff0000000000000000000000000000000000000000000000000000000000000060f889901b1660208201527fffffffff0000000000000000000000000000000000000000000000000000000060e088811b821660218401527fffffffffffffffffffffffffffffffffffffffff000000000000000000000000606089811b821660258601529188901b909216603984015285901b16603d8201526051810183905260718101829052600090609101604051602081830303815290604052805190602001209050979650505050505050565b348015620004dd57600080fd5b50606f54620002449073ffffffffffffffffffffffffffffffffffffffff1681565b3480156200050c57600080fd5b506200021d6200051e366004620036a2565b62000fad565b3480156200053157600080fd5b506200021d6200106e565b3480156200054957600080fd5b50620002446200055b366004620036d1565b606a6020526000908152604090205473ffffffffffffffffffffffffffffffffffffffff1681565b3480156200059057600080fd5b50620002ce606e5481565b348015620005a857600080fd5b50620001f0620005ba366004620036d1565b600881901c600090815260696020526040902054600160ff9092169190911b9081161490565b348015620005ed57600080fd5b506200021d620005ff366004620037f8565b620010a8565b3480156200061257600080fd5b506200024462000624366004620038b2565b62001325565b3480156200063757600080fd5b506068546200064e90610100900463ffffffff1681565b60405163ffffffff9091168152602001620001fc565b3480156200067157600080fd5b506068546200064e90790100000000000000000000000000000000000000000000000000900463ffffffff1681565b6200021d620006b136600462003975565b62001511565b348015620006c457600080fd5b50606854620002449065010000000000900473ffffffffffffffffffffffffffffffffffffffff1681565b348015620006fc57600080fd5b506200021d62001c51565b3480156200071457600080fd5b50620002ce62000726366004620036d1565b60696020526000908152604090205481565b3480156200074557600080fd5b50606d54620002449073ffffffffffffffffffffffffffffffffffffffff1681565b3480156200077457600080fd5b50620001f06200078636600462003a17565b62001cad565b606c5473ffffffffffffffffffffffffffffffffffffffff163314620007de576040517fe2e8106b00000000000000000000000000000000000000000000000000000000815260040160405180910390fd5b620007e862001d96565b565b6040805160e084901b7fffffffff0000000000000000000000000000000000000000000000000000000016602080830191909152606084901b7fffffffffffffffffffffffffffffffffffffffff00000000000000000000000016602483015282516018818403018152603890920183528151918101919091206000908152606a909152205473ffffffffffffffffffffffffffffffffffffffff165b92915050565b607180546200089c9062003a64565b80601f0160208091040260200160405190810160405280929190818152602001828054620008ca9062003a64565b80156200091b5780601f10620008ef576101008083540402835291602001916200091b565b820191906000526020600020905b815481529060010190602001808311620008fd57829003601f168201915b505050505081565b60685460ff161562000961576040517f2f0047fc00000000000000000000000000000000000000000000000000000000815260040160405180910390fd5b620009788b8b8b8b8b8b8b8b8b8b8b600062001e2a565b73ffffffffffffffffffffffffffffffffffffffff861662000a54576040805160008082526020820190925273ffffffffffffffffffffffffffffffffffffffff8616908590604051620009cd919062003ab9565b60006040518083038185875af1925050503d806000811462000a0c576040519150601f19603f3d011682016040523d82523d6000602084013e62000a11565b606091505b505090508062000a4d576040517f6747a28800000000000000000000000000000000000000000000000000000000815260040160405180910390fd5b5062000e4f565b60685463ffffffff61010090910481169088160362000a965762000a9073ffffffffffffffffffffffffffffffffffffffff87168585620020f8565b62000e4f565b6040517fffffffff0000000000000000000000000000000000000000000000000000000060e089901b1660208201527fffffffffffffffffffffffffffffffffffffffff000000000000000000000000606088901b166024820152600090603801604080517fffffffffffffffffffffffffffffffffffffffffffffffffffffffffffffffe081840301815291815281516020928301206000818152606a90935291205490915073ffffffffffffffffffffffffffffffffffffffff168062000dc1576000808062000b6b8688018862003afa565b92509250925060008584848460405162000b859062003390565b62000b939392919062003b7b565b8190604051809103906000f590508015801562000bb4573d6000803e3d6000fd5b506040517f40c10f1900000000000000000000000000000000000000000000000000000000815273ffffffffffffffffffffffffffffffffffffffff8c81166004830152602482018c9052919250908216906340c10f1990604401600060405180830381600087803b15801562000c2a57600080fd5b505af115801562000c3f573d6000803e3d6000fd5b5050505080606a600088815260200190815260200160002060006101000a81548173ffffffffffffffffffffffffffffffffffffffff021916908373ffffffffffffffffffffffffffffffffffffffff16021790555060405180604001604052808e63ffffffff1681526020018d73ffffffffffffffffffffffffffffffffffffffff16815250606b60008373ffffffffffffffffffffffffffffffffffffffff1673ffffffffffffffffffffffffffffffffffffffff16815260200190815260200160002060008201518160000160006101000a81548163ffffffff021916908363ffffffff16021790555060208201518160000160046101000a81548173ffffffffffffffffffffffffffffffffffffffff021916908373ffffffffffffffffffffffffffffffffffffffff1602179055509050507f490e59a1701b938786ac72570a1efeac994a3dbe96e2e883e19e902ace6e6a398d8d838b8b60405162000daf95949392919062003c01565b60405180910390a15050505062000e4c565b6040517f40c10f1900000000000000000000000000000000000000000000000000000000815273ffffffffffffffffffffffffffffffffffffffff8781166004830152602482018790528216906340c10f1990604401600060405180830381600087803b15801562000e3257600080fd5b505af115801562000e47573d6000803e3d6000fd5b505050505b50505b6040805163ffffffff8c811682528916602082015273ffffffffffffffffffffffffffffffffffffffff88811682840152861660608201526080810185905290517f25308c93ceeed162da955b3f7ce3e3f93606579e40fb92029faa9efe275459839181900360a00190a15050505050505050505050565b605354600090819081805b602081101562000fa4578083901c60011660010362000f35576033816020811062000f015762000f0162003c49565b0154604080516020810192909252810185905260600160405160208183030381529060405280519060200120935062000f62565b60408051602081018690529081018390526060016040516020818303038152906040528051906020012093505b6040805160208101849052908101839052606001604051602081830303815290604052805190602001209150808062000f9b9062003ca7565b91505062000ed2565b50919392505050565b606d5473ffffffffffffffffffffffffffffffffffffffff16331462000fff576040517f4755657900000000000000000000000000000000000000000000000000000000815260040160405180910390fd5b73ffffffffffffffffffffffffffffffffffffffff8216156200105d57606f80547fffffffffffffffffffffffff00000000000000000000000000000000000000001673ffffffffffffffffffffffffffffffffffffffff84161790555b80156200106a57606e8190555b5050565b605354606854790100000000000000000000000000000000000000000000000000900463ffffffff161015620007e857620007e8620021d3565b600054610100900460ff1615808015620010c95750600054600160ff909116105b80620010e55750303b158015620010e5575060005460ff166001145b62001177576040517f08c379a000000000000000000000000000000000000000000000000000000000815260206004820152602e60248201527f496e697469616c697a61626c653a20636f6e747261637420697320616c72656160448201527f647920696e697469616c697a656400000000000000000000000000000000000060648201526084015b60405180910390fd5b600080547fffffffffffffffffffffffffffffffffffffffffffffffffffffffffffffff001660011790558015620011d657600080547fffffffffffffffffffffffffffffffffffffffffffffffffffffffffffff00ff166101001790555b606880547fffffffffffffff000000000000000000000000000000000000000000000000ff1661010063ffffffff8a16027fffffffffffffff0000000000000000000000000000000000000000ffffffffff16176501000000000073ffffffffffffffffffffffffffffffffffffffff8981169190910291909117909155606c80547fffffffffffffffffffffffff000000000000000000000000000000000000000090811688841617909155606d80548216878416179055607080549091169185169190911790556071620012ad838262003d34565b50620012b8620022ae565b80156200131c57600080547fffffffffffffffffffffffffffffffffffffffffffffffffffffffffffff00ff169055604051600181527f7f26b83ff96e1f2b6a682f133852f6798a09c465da95921460cefb38474024989060200160405180910390a15b50505050505050565b6040517fffffffff0000000000000000000000000000000000000000000000000000000060e089901b1660208201527fffffffffffffffffffffffffffffffffffffffff000000000000000000000000606088901b1660248201526000908190603801604051602081830303815290604052805190602001209050600060ff60f81b308360405180602001620013bb9062003390565b7fffffffffffffffffffffffffffffffffffffffffffffffffffffffffffffffe082820381018352601f90910116604081905262001406908d908d908d908d908d9060200162003e5b565b604080517fffffffffffffffffffffffffffffffffffffffffffffffffffffffffffffffe08184030181529082905262001444929160200162003e9c565b60405160208183030381529060405280519060200120604051602001620014cd94939291907fff0000000000000000000000000000000000000000000000000000000000000094909416845260609290921b7fffffffffffffffffffffffffffffffffffffffff0000000000000000000000001660018401526015830152603582015260550190565b604080518083037fffffffffffffffffffffffffffffffffffffffffffffffffffffffffffffffe001815291905280516020909101209a9950505050505050505050565b60685460ff16156200154f576040517f2f0047fc00000000000000000000000000000000000000000000000000000000815260040160405180910390fd5b6200155962002351565b60685463ffffffff8881166101009092041614806200157f5750600263ffffffff881610155b15620015b7576040517f0595ea2e00000000000000000000000000000000000000000000000000000000815260040160405180910390fd5b60008060608773ffffffffffffffffffffffffffffffffffffffff8816620016ff5788606e5434620015ea919062003ecf565b1462001622576040517fb89240f500000000000000000000000000000000000000000000000000000000815260040160405180910390fd5b60705473ffffffffffffffffffffffffffffffffffffffff1615620016f5576070546071805473ffffffffffffffffffffffffffffffffffffffff9092169550906200166e9062003a64565b80601f01602080910402602001604051908101604052809291908181526020018280546200169c9062003a64565b8015620016ed5780601f10620016c157610100808354040283529160200191620016ed565b820191906000526020600020905b815481529060010190602001808311620016cf57829003601f168201915b505050505091505b6000925062001a25565b606e5434146200173b576040517fb89240f500000000000000000000000000000000000000000000000000000000815260040160405180910390fd5b73ffffffffffffffffffffffffffffffffffffffff8089166000908152606b602090815260409182902082518084019093525463ffffffff81168352640100000000900490921691810182905290156200182b576040517f9dc29fac000000000000000000000000000000000000000000000000000000008152336004820152602481018b905273ffffffffffffffffffffffffffffffffffffffff8a1690639dc29fac90604401600060405180830381600087803b158015620017fe57600080fd5b505af115801562001813573d6000803e3d6000fd5b505050508060200151945080600001519350620019fa565b8515620018405762001840898b8989620023c6565b6040517f70a0823100000000000000000000000000000000000000000000000000000000815230600482015260009073ffffffffffffffffffffffffffffffffffffffff8b16906370a0823190602401602060405180830381865afa158015620018ae573d6000803e3d6000fd5b505050506040513d601f19601f82011682018060405250810190620018d4919062003ee5565b9050620018fa73ffffffffffffffffffffffffffffffffffffffff8b1633308e620028e5565b6040517f70a0823100000000000000000000000000000000000000000000000000000000815230600482015260009073ffffffffffffffffffffffffffffffffffffffff8c16906370a0823190602401602060405180830381865afa15801562001968573d6000803e3d6000fd5b505050506040513d601f19601f820116820180604052508101906200198e919062003ee5565b90506200199c828262003ecf565b6068548c9850610100900463ffffffff1696509350620019bc8762002945565b620019c78c62002a5d565b620019d28d62002b6a565b604051602001620019e69392919062003b7b565b604051602081830303815290604052945050505b60705473ffffffffffffffffffffffffffffffffffffffff9081169086160362001a2357600094505b505b7f501781209a1f8899323b96b4ef08b168df93e0a90c673d1e4cce39366cb62f9b600084868e8e868860535460405162001a6798979695949392919062003eff565b60405180910390a162001b6162001b5b600085878f8f8789805190602001206040517fff0000000000000000000000000000000000000000000000000000000000000060f889901b1660208201527fffffffff0000000000000000000000000000000000000000000000000000000060e088811b821660218401527fffffffffffffffffffffffffffffffffffffffff000000000000000000000000606089811b821660258601529188901b909216603984015285901b16603d8201526051810183905260718101829052600090609101604051602081830303815290604052805190602001209050979650505050505050565b62002c66565b606f5473ffffffffffffffffffffffffffffffffffffffff161580159062001b8b57506000606e54115b1562001c3257606f54606e5460405160009273ffffffffffffffffffffffffffffffffffffffff1691908381818185875af1925050503d806000811462001bef576040519150601f19603f3d011682016040523d82523d6000602084013e62001bf4565b606091505b505090508062001c30576040517f6747a28800000000000000000000000000000000000000000000000000000000815260040160405180910390fd5b505b861562001c435762001c43620021d3565b505050506200131c60018055565b606c5473ffffffffffffffffffffffffffffffffffffffff16331462001ca3576040517fe2e8106b00000000000000000000000000000000000000000000000000000000815260040160405180910390fd5b620007e862002d7e565b600084815b602081101562001d8857600163ffffffff8616821c8116900362001d245785816020811062001ce55762001ce562003c49565b60200201358260405160200162001d06929190918252602082015260400190565b60405160208183030381529060405280519060200120915062001d73565b8186826020811062001d3a5762001d3a62003c49565b602002013560405160200162001d5a929190918252602082015260400190565b6040516020818303038152906040528051906020012091505b8062001d7f8162003ca7565b91505062001cb2565b50821490505b949350505050565b60685460ff161562001dd4576040517f2f0047fc00000000000000000000000000000000000000000000000000000000815260040160405180910390fd5b606880547fffffffffffffffffffffffffffffffffffffffffffffffffffffffffffffff001660011790556040517f2261efe5aef6fedc1fd1550b25facc9181745623049c7901287030b9ad1a549790600090a1565b62001e3b8b63ffffffff1662002e0e565b6068546040805160208082018e90528183018d9052825180830384018152606083019384905280519101207f257b363200000000000000000000000000000000000000000000000000000000909252606481019190915260009165010000000000900473ffffffffffffffffffffffffffffffffffffffff169063257b3632906084016020604051808303816000875af115801562001ede573d6000803e3d6000fd5b505050506040513d601f19601f8201168201806040525081019062001f04919062003ee5565b90508060000362001f40576040517e2f6fad00000000000000000000000000000000000000000000000000000000815260040160405180910390fd5b60685463ffffffff888116610100909204161462001f8a576040517f0595ea2e00000000000000000000000000000000000000000000000000000000815260040160405180910390fd5b606854600090610100900463ffffffff1662001fa857508962001fab565b508a5b620020b1620020a8848c8c8c8c8c8c8c60405162001fcb92919062003f78565b60405180910390206040517fff0000000000000000000000000000000000000000000000000000000000000060f889901b1660208201527fffffffff0000000000000000000000000000000000000000000000000000000060e088811b821660218401527fffffffffffffffffffffffffffffffffffffffff000000000000000000000000606089811b821660258601529188901b909216603984015285901b16603d8201526051810183905260718101829052600090609101604051602081830303815290604052805190602001209050979650505050505050565b8f8f8462001cad565b620020e8576040517fe0417cec00000000000000000000000000000000000000000000000000000000815260040160405180910390fd5b5050505050505050505050505050565b60405173ffffffffffffffffffffffffffffffffffffffff8316602482015260448101829052620021ce9084907fa9059cbb00000000000000000000000000000000000000000000000000000000906064015b604080517fffffffffffffffffffffffffffffffffffffffffffffffffffffffffffffffe08184030181529190526020810180517bffffffffffffffffffffffffffffffffffffffffffffffffffffffff167fffffffff000000000000000000000000000000000000000000000000000000009093169290921790915262002e73565b505050565b6053546068805463ffffffff909216790100000000000000000000000000000000000000000000000000027fffffff00000000ffffffffffffffffffffffffffffffffffffffffffffffffff909216919091179081905573ffffffffffffffffffffffffffffffffffffffff65010000000000909104166333d6247d6200225962000ec7565b6040518263ffffffff1660e01b81526004016200227891815260200190565b600060405180830381600087803b1580156200229357600080fd5b505af1158015620022a8573d6000803e3d6000fd5b50505050565b600054610100900460ff1662002347576040517f08c379a000000000000000000000000000000000000000000000000000000000815260206004820152602b60248201527f496e697469616c697a61626c653a20636f6e7472616374206973206e6f74206960448201527f6e697469616c697a696e6700000000000000000000000000000000000000000060648201526084016200116e565b620007e862002f86565b600260015403620023bf576040517f08c379a000000000000000000000000000000000000000000000000000000000815260206004820152601f60248201527f5265656e7472616e637947756172643a207265656e7472616e742063616c6c0060448201526064016200116e565b6002600155565b6000620023d7600482848662003f88565b620023e29162003fb4565b90507f2afa5331000000000000000000000000000000000000000000000000000000007fffffffff000000000000000000000000000000000000000000000000000000008216016200266157600080808080808062002445896004818d62003f88565b81019062002454919062003ffd565b96509650965096509650965096503373ffffffffffffffffffffffffffffffffffffffff168773ffffffffffffffffffffffffffffffffffffffff1614620024c8576040517f912ecce700000000000000000000000000000000000000000000000000000000815260040160405180910390fd5b73ffffffffffffffffffffffffffffffffffffffff8616301462002518576040517f750643af00000000000000000000000000000000000000000000000000000000815260040160405180910390fd5b8a851462002552576040517f03fffc4b00000000000000000000000000000000000000000000000000000000815260040160405180910390fd5b6040805173ffffffffffffffffffffffffffffffffffffffff89811660248301528881166044830152606482018890526084820187905260ff861660a483015260c4820185905260e48083018590528351808403909101815261010490920183526020820180517bffffffffffffffffffffffffffffffffffffffffffffffffffffffff167fd505accf000000000000000000000000000000000000000000000000000000001790529151918e16916200260d919062003ab9565b6000604051808303816000865af19150503d80600081146200264c576040519150601f19603f3d011682016040523d82523d6000602084013e62002651565b606091505b50505050505050505050620028de565b7fffffffff0000000000000000000000000000000000000000000000000000000081167f8fcbaf0c0000000000000000000000000000000000000000000000000000000014620026dd576040517fe282c0ba00000000000000000000000000000000000000000000000000000000815260040160405180910390fd5b600080808080808080620026f58a6004818e62003f88565b81019062002704919062004058565b975097509750975097509750975097503373ffffffffffffffffffffffffffffffffffffffff168873ffffffffffffffffffffffffffffffffffffffff16146200277a576040517f912ecce700000000000000000000000000000000000000000000000000000000815260040160405180910390fd5b73ffffffffffffffffffffffffffffffffffffffff87163014620027ca576040517f750643af00000000000000000000000000000000000000000000000000000000815260040160405180910390fd5b6040805173ffffffffffffffffffffffffffffffffffffffff8a811660248301528981166044830152606482018990526084820188905286151560a483015260ff861660c483015260e482018590526101048083018590528351808403909101815261012490920183526020820180517bffffffffffffffffffffffffffffffffffffffffffffffffffffffff167f8fcbaf0c000000000000000000000000000000000000000000000000000000001790529151918f16916200288e919062003ab9565b6000604051808303816000865af19150503d8060008114620028cd576040519150601f19603f3d011682016040523d82523d6000602084013e620028d2565b606091505b50505050505050505050505b5050505050565b60405173ffffffffffffffffffffffffffffffffffffffff80851660248301528316604482015260648101829052620022a89085907f23b872dd00000000000000000000000000000000000000000000000000000000906084016200214b565b60408051600481526024810182526020810180517bffffffffffffffffffffffffffffffffffffffffffffffffffffffff167f06fdde03000000000000000000000000000000000000000000000000000000001790529051606091600091829173ffffffffffffffffffffffffffffffffffffffff861691620029c9919062003ab9565b600060405180830381855afa9150503d806000811462002a06576040519150601f19603f3d011682016040523d82523d6000602084013e62002a0b565b606091505b50915091508162002a52576040518060400160405280600781526020017f4e4f5f4e414d450000000000000000000000000000000000000000000000000081525062001d8e565b62001d8e816200301f565b60408051600481526024810182526020810180517bffffffffffffffffffffffffffffffffffffffffffffffffffffffff167f95d89b41000000000000000000000000000000000000000000000000000000001790529051606091600091829173ffffffffffffffffffffffffffffffffffffffff86169162002ae1919062003ab9565b600060405180830381855afa9150503d806000811462002b1e576040519150601f19603f3d011682016040523d82523d6000602084013e62002b23565b606091505b50915091508162002a52576040518060400160405280600981526020017f4e4f5f53594d424f4c000000000000000000000000000000000000000000000081525062001d8e565b60408051600481526024810182526020810180517bffffffffffffffffffffffffffffffffffffffffffffffffffffffff167f313ce5670000000000000000000000000000000000000000000000000000000017905290516000918291829173ffffffffffffffffffffffffffffffffffffffff86169162002bed919062003ab9565b600060405180830381855afa9150503d806000811462002c2a576040519150601f19603f3d011682016040523d82523d6000602084013e62002c2f565b606091505b509150915081801562002c43575080516020145b62002c5057601262001d8e565b8080602001905181019062001d8e9190620040e4565b80600162002c77602060026200423d565b62002c83919062003ecf565b6053541062002cbe576040517fef5ccf6600000000000000000000000000000000000000000000000000000000815260040160405180910390fd5b600060536000815462002cd19062003ca7565b9182905550905060005b602081101562002d6d578082901c60011660010362002d1357826033826020811062002d0b5762002d0b62003c49565b015550505050565b6033816020811062002d295762002d2962003c49565b01546040805160208101929092528101849052606001604051602081830303815290604052805190602001209250808062002d649062003ca7565b91505062002cdb565b50620021ce6200424b565b60018055565b60685460ff1662002dbb576040517f5386698100000000000000000000000000000000000000000000000000000000815260040160405180910390fd5b606880547fffffffffffffffffffffffffffffffffffffffffffffffffffffffffffffff001690556040517f1e5e34eea33501aecf2ebec9fe0e884a40804275ea7fe10b2ba084c8374308b390600090a1565b600881901c60008181526069602052604081208054600160ff861690811b91821892839055929091908183169003620028de576040517f646cf55800000000000000000000000000000000000000000000000000000000815260040160405180910390fd5b600062002ed7826040518060400160405280602081526020017f5361666545524332303a206c6f772d6c6576656c2063616c6c206661696c65648152508573ffffffffffffffffffffffffffffffffffffffff166200320f9092919063ffffffff16565b805190915015620021ce578080602001905181019062002ef891906200427a565b620021ce576040517f08c379a000000000000000000000000000000000000000000000000000000000815260206004820152602a60248201527f5361666545524332303a204552433230206f7065726174696f6e20646964206e60448201527f6f7420737563636565640000000000000000000000000000000000000000000060648201526084016200116e565b600054610100900460ff1662002d78576040517f08c379a000000000000000000000000000000000000000000000000000000000815260206004820152602b60248201527f496e697469616c697a61626c653a20636f6e7472616374206973206e6f74206960448201527f6e697469616c697a696e6700000000000000000000000000000000000000000060648201526084016200116e565b606060408251106200304157818060200190518101906200088791906200429a565b8151602003620031d15760005b6020811080156200309957508281815181106200306f576200306f62003c49565b01602001517fff000000000000000000000000000000000000000000000000000000000000001615155b15620030b45780620030ab8162003ca7565b9150506200304e565b80600003620030f857505060408051808201909152601281527f4e4f545f56414c49445f454e434f44494e4700000000000000000000000000006020820152919050565b60008167ffffffffffffffff811115620031165762003116620036eb565b6040519080825280601f01601f19166020018201604052801562003141576020820181803683370190505b50905060005b82811015620031c95784818151811062003165576200316562003c49565b602001015160f81c60f81b82828151811062003185576200318562003c49565b60200101907effffffffffffffffffffffffffffffffffffffffffffffffffffffffffffff1916908160001a90535080620031c08162003ca7565b91505062003147565b509392505050565b505060408051808201909152601281527f4e4f545f56414c49445f454e434f44494e470000000000000000000000000000602082015290565b919050565b606062001d8e8484600085856000808673ffffffffffffffffffffffffffffffffffffffff16858760405162003246919062003ab9565b60006040518083038185875af1925050503d806000811462003285576040519150601f19603f3d011682016040523d82523d6000602084013e6200328a565b606091505b50915091506200329d87838387620032a8565b979650505050505050565b60608315620033435782516000036200333b5773ffffffffffffffffffffffffffffffffffffffff85163b6200333b576040517f08c379a000000000000000000000000000000000000000000000000000000000815260206004820152601d60248201527f416464726573733a2063616c6c20746f206e6f6e2d636f6e747261637400000060448201526064016200116e565b508162001d8e565b62001d8e83838151156200335a5781518083602001fd5b806040517f08c379a00000000000000000000000000000000000000000000000000000000081526004016200116e919062003487565b611b66806200431b83390190565b803563ffffffff811681146200320a57600080fd5b73ffffffffffffffffffffffffffffffffffffffff81168114620033d657600080fd5b50565b60008060408385031215620033ed57600080fd5b620033f8836200339e565b915060208301356200340a81620033b3565b809150509250929050565b60005b838110156200343257818101518382015260200162003418565b50506000910152565b600081518084526200345581602086016020860162003415565b601f017fffffffffffffffffffffffffffffffffffffffffffffffffffffffffffffffe0169290920160200192915050565b6020815260006200349c60208301846200343b565b9392505050565b8061040081018310156200088757600080fd5b60008083601f840112620034c957600080fd5b50813567ffffffffffffffff811115620034e257600080fd5b602083019150836020828501011115620034fb57600080fd5b9250929050565b60008060008060008060008060008060006105208c8e0312156200352557600080fd5b620035318d8d620034a3565b9a50620035426104008d016200339e565b99506104208c013598506104408c01359750620035636104608d016200339e565b96506104808c01356200357681620033b3565b9550620035876104a08d016200339e565b94506104c08c01356200359a81620033b3565b93506104e08c013592506105008c013567ffffffffffffffff811115620035c057600080fd5b620035ce8e828f01620034b6565b915080935050809150509295989b509295989b9093969950565b600060208284031215620035fb57600080fd5b81356200349c81620033b3565b60ff81168114620033d657600080fd5b600080600080600080600060e0888a0312156200363457600080fd5b8735620036418162003608565b965062003651602089016200339e565b955060408801356200366381620033b3565b945062003673606089016200339e565b935060808801356200368581620033b3565b9699959850939692959460a0840135945060c09093013592915050565b60008060408385031215620036b657600080fd5b8235620036c381620033b3565b946020939093013593505050565b600060208284031215620036e457600080fd5b5035919050565b7f4e487b7100000000000000000000000000000000000000000000000000000000600052604160045260246000fd5b604051601f82017fffffffffffffffffffffffffffffffffffffffffffffffffffffffffffffffe016810167ffffffffffffffff81118282101715620037645762003764620036eb565b604052919050565b600067ffffffffffffffff821115620037895762003789620036eb565b50601f017fffffffffffffffffffffffffffffffffffffffffffffffffffffffffffffffe01660200190565b6000620037cc620037c6846200376c565b6200371a565b9050828152838383011115620037e157600080fd5b828260208301376000602084830101529392505050565b60008060008060008060c087890312156200381257600080fd5b6200381d876200339e565b955060208701356200382f81620033b3565b945060408701356200384181620033b3565b935060608701356200385381620033b3565b925060808701356200386581620033b3565b915060a087013567ffffffffffffffff8111156200388257600080fd5b8701601f810189136200389457600080fd5b620038a589823560208401620037b5565b9150509295509295509295565b600080600080600080600060a0888a031215620038ce57600080fd5b620038d9886200339e565b96506020880135620038eb81620033b3565b9550604088013567ffffffffffffffff808211156200390957600080fd5b620039178b838c01620034b6565b909750955060608a01359150808211156200393157600080fd5b50620039408a828b01620034b6565b9094509250506080880135620039568162003608565b8091505092959891949750929550565b8015158114620033d657600080fd5b600080600080600080600060c0888a0312156200399157600080fd5b6200399c886200339e565b96506020880135620039ae81620033b3565b9550604088013594506060880135620039c781620033b3565b93506080880135620039d98162003966565b925060a088013567ffffffffffffffff811115620039f657600080fd5b62003a048a828b01620034b6565b989b979a50959850939692959293505050565b600080600080610460858703121562003a2f57600080fd5b8435935062003a428660208701620034a3565b925062003a5361042086016200339e565b939692955092936104400135925050565b600181811c9082168062003a7957607f821691505b60208210810362003ab3577f4e487b7100000000000000000000000000000000000000000000000000000000600052602260045260246000fd5b50919050565b6000825162003acd81846020870162003415565b9190910192915050565b600082601f83011262003ae957600080fd5b6200349c83833560208501620037b5565b60008060006060848603121562003b1057600080fd5b833567ffffffffffffffff8082111562003b2957600080fd5b62003b378783880162003ad7565b9450602086013591508082111562003b4e57600080fd5b5062003b5d8682870162003ad7565b925050604084013562003b708162003608565b809150509250925092565b60608152600062003b9060608301866200343b565b828103602084015262003ba481866200343b565b91505060ff83166040830152949350505050565b8183528181602085013750600060208284010152600060207fffffffffffffffffffffffffffffffffffffffffffffffffffffffffffffffe0601f840116840101905092915050565b63ffffffff86168152600073ffffffffffffffffffffffffffffffffffffffff8087166020840152808616604084015250608060608301526200329d60808301848662003bb8565b7f4e487b7100000000000000000000000000000000000000000000000000000000600052603260045260246000fd5b7f4e487b7100000000000000000000000000000000000000000000000000000000600052601160045260246000fd5b60007fffffffffffffffffffffffffffffffffffffffffffffffffffffffffffffffff820362003cdb5762003cdb62003c78565b5060010190565b601f821115620021ce57600081815260208120601f850160051c8101602086101562003d0b5750805b601f850160051c820191505b8181101562003d2c5782815560010162003d17565b505050505050565b815167ffffffffffffffff81111562003d515762003d51620036eb565b62003d698162003d62845462003a64565b8462003ce2565b602080601f83116001811462003dbf576000841562003d885750858301515b7fffffffffffffffffffffffffffffffffffffffffffffffffffffffffffffffff600386901b1c1916600185901b17855562003d2c565b6000858152602081207fffffffffffffffffffffffffffffffffffffffffffffffffffffffffffffffe08616915b8281101562003e0e5788860151825594840194600190910190840162003ded565b508582101562003e4b57878501517fffffffffffffffffffffffffffffffffffffffffffffffffffffffffffffffff600388901b60f8161c191681555b5050505050600190811b01905550565b60608152600062003e7160608301878962003bb8565b828103602084015262003e8681868862003bb8565b91505060ff831660408301529695505050505050565b6000835162003eb081846020880162003415565b83519083019062003ec681836020880162003415565b01949350505050565b8181038181111562000887576200088762003c78565b60006020828403121562003ef857600080fd5b5051919050565b600061010060ff8b16835263ffffffff808b16602085015273ffffffffffffffffffffffffffffffffffffffff808b166040860152818a1660608601528089166080860152508660a08501528160c085015262003f5f828501876200343b565b925080851660e085015250509998505050505050505050565b8183823760009101908152919050565b6000808585111562003f9957600080fd5b8386111562003fa757600080fd5b5050820193919092039150565b7fffffffff00000000000000000000000000000000000000000000000000000000813581811691600485101562003ff55780818660040360031b1b83161692505b505092915050565b600080600080600080600060e0888a0312156200401957600080fd5b87356200402681620033b3565b965060208801356200403881620033b3565b955060408801359450606088013593506080880135620036858162003608565b600080600080600080600080610100898b0312156200407657600080fd5b88356200408381620033b3565b975060208901356200409581620033b3565b965060408901359550606089013594506080890135620040b58162003966565b935060a0890135620040c78162003608565b979a969950949793969295929450505060c08201359160e0013590565b600060208284031215620040f757600080fd5b81516200349c8162003608565b600181815b808511156200416357817fffffffffffffffffffffffffffffffffffffffffffffffffffffffffffffffff0482111562004147576200414762003c78565b808516156200415557918102915b93841c939080029062004109565b509250929050565b6000826200417c5750600162000887565b816200418b5750600062000887565b8160018114620041a45760028114620041af57620041cf565b600191505062000887565b60ff841115620041c357620041c362003c78565b50506001821b62000887565b5060208310610133831016604e8410600b8410161715620041f4575081810a62000887565b62004200838362004104565b807fffffffffffffffffffffffffffffffffffffffffffffffffffffffffffffffff0482111562004235576200423562003c78565b029392505050565b60006200349c83836200416b565b7f4e487b7100000000000000000000000000000000000000000000000000000000600052600160045260246000fd5b6000602082840312156200428d57600080fd5b81516200349c8162003966565b600060208284031215620042ad57600080fd5b815167ffffffffffffffff811115620042c557600080fd5b8201601f81018413620042d757600080fd5b8051620042e8620037c6826200376c565b818152856020838501011115620042fe57600080fd5b6200431182602083016020860162003415565b9594505050505056fe6101006040523480156200001257600080fd5b5060405162001b6638038062001b6683398101604081905262000035916200028d565b82826003620000458382620003a1565b506004620000548282620003a1565b50503360c0525060ff811660e052466080819052620000739062000080565b60a052506200046d915050565b60007f8b73c3c69bb8fe3d512ecc4cf759cc79239f7b179b0ffacaa9a75d522b39400f620000ad6200012e565b805160209182012060408051808201825260018152603160f81b90840152805192830193909352918101919091527fc89efdaa54c0f20c7adf612882df0950f5a951637e0307cdcb4c672f298b8bc66060820152608081018390523060a082015260c001604051602081830303815290604052805190602001209050919050565b6060600380546200013f9062000312565b80601f01602080910402602001604051908101604052809291908181526020018280546200016d9062000312565b8015620001be5780601f106200019257610100808354040283529160200191620001be565b820191906000526020600020905b815481529060010190602001808311620001a057829003601f168201915b5050505050905090565b634e487b7160e01b600052604160045260246000fd5b600082601f830112620001f057600080fd5b81516001600160401b03808211156200020d576200020d620001c8565b604051601f8301601f19908116603f01168101908282118183101715620002385762000238620001c8565b816040528381526020925086838588010111156200025557600080fd5b600091505b838210156200027957858201830151818301840152908201906200025a565b600093810190920192909252949350505050565b600080600060608486031215620002a357600080fd5b83516001600160401b0380821115620002bb57600080fd5b620002c987838801620001de565b94506020860151915080821115620002e057600080fd5b50620002ef86828701620001de565b925050604084015160ff811681146200030757600080fd5b809150509250925092565b600181811c908216806200032757607f821691505b6020821081036200034857634e487b7160e01b600052602260045260246000fd5b50919050565b601f8211156200039c57600081815260208120601f850160051c81016020861015620003775750805b601f850160051c820191505b81811015620003985782815560010162000383565b5050505b505050565b81516001600160401b03811115620003bd57620003bd620001c8565b620003d581620003ce845462000312565b846200034e565b602080601f8311600181146200040d5760008415620003f45750858301515b600019600386901b1c1916600185901b17855562000398565b600085815260208120601f198616915b828110156200043e578886015182559484019460019091019084016200041d565b50858210156200045d5787850151600019600388901b60f8161c191681555b5050505050600190811b01905550565b60805160a05160c05160e0516116aa620004bc6000396000610237015260008181610307015281816105c001526106a70152600061053a015260008181610379015261050401526116aa6000f3fe608060405234801561001057600080fd5b50600436106101775760003560e01c806370a08231116100d8578063a457c2d71161008c578063d505accf11610066578063d505accf1461039b578063dd62ed3e146103ae578063ffa1ad74146103f457600080fd5b8063a457c2d71461034e578063a9059cbb14610361578063cd0d00961461037457600080fd5b806395d89b41116100bd57806395d89b41146102e75780639dc29fac146102ef578063a3c573eb1461030257600080fd5b806370a08231146102915780637ecebe00146102c757600080fd5b806330adf81f1161012f5780633644e515116101145780633644e51514610261578063395093511461026957806340c10f191461027c57600080fd5b806330adf81f14610209578063313ce5671461023057600080fd5b806318160ddd1161016057806318160ddd146101bd57806320606b70146101cf57806323b872dd146101f657600080fd5b806306fdde031461017c578063095ea7b31461019a575b600080fd5b610184610430565b60405161019191906113e4565b60405180910390f35b6101ad6101a8366004611479565b6104c2565b6040519015158152602001610191565b6002545b604051908152602001610191565b6101c17f8b73c3c69bb8fe3d512ecc4cf759cc79239f7b179b0ffacaa9a75d522b39400f81565b6101ad6102043660046114a3565b6104dc565b6101c17f6e71edae12b1b97f4d1f60370fef10105fa2faae0126114a169c64845d6126c981565b60405160ff7f0000000000000000000000000000000000000000000000000000000000000000168152602001610191565b6101c1610500565b6101ad610277366004611479565b61055c565b61028f61028a366004611479565b6105a8565b005b6101c161029f3660046114df565b73ffffffffffffffffffffffffffffffffffffffff1660009081526020819052604090205490565b6101c16102d53660046114df565b60056020526000908152604090205481565b610184610680565b61028f6102fd366004611479565b61068f565b6103297f000000000000000000000000000000000000000000000000000000000000000081565b60405173ffffffffffffffffffffffffffffffffffffffff9091168152602001610191565b6101ad61035c366004611479565b61075e565b6101ad61036f366004611479565b61082f565b6101c17f000000000000000000000000000000000000000000000000000000000000000081565b61028f6103a9366004611501565b61083d565b6101c16103bc366004611574565b73ffffffffffffffffffffffffffffffffffffffff918216600090815260016020908152604080832093909416825291909152205490565b6101846040518060400160405280600181526020017f310000000000000000000000000000000000000000000000000000000000000081525081565b60606003805461043f906115a7565b80601f016020809104026020016040519081016040528092919081815260200182805461046b906115a7565b80156104b85780601f1061048d576101008083540402835291602001916104b8565b820191906000526020600020905b81548152906001019060200180831161049b57829003601f168201915b5050505050905090565b6000336104d0818585610b73565b60019150505b92915050565b6000336104ea858285610d27565b6104f5858585610dfe565b506001949350505050565b60007f00000000000000000000000000000000000000000000000000000000000000004614610537576105324661106d565b905090565b507f000000000000000000000000000000000000000000000000000000000000000090565b33600081815260016020908152604080832073ffffffffffffffffffffffffffffffffffffffff871684529091528120549091906104d090829086906105a3908790611629565b610b73565b3373ffffffffffffffffffffffffffffffffffffffff7f00000000000000000000000000000000000000000000000000000000000000001614610672576040517f08c379a000000000000000000000000000000000000000000000000000000000815260206004820152603060248201527f546f6b656e577261707065643a3a6f6e6c794272696467653a204e6f7420506f60448201527f6c79676f6e5a6b45564d4272696467650000000000000000000000000000000060648201526084015b60405180910390fd5b61067c8282611135565b5050565b60606004805461043f906115a7565b3373ffffffffffffffffffffffffffffffffffffffff7f00000000000000000000000000000000000000000000000000000000000000001614610754576040517f08c379a000000000000000000000000000000000000000000000000000000000815260206004820152603060248201527f546f6b656e577261707065643a3a6f6e6c794272696467653a204e6f7420506f60448201527f6c79676f6e5a6b45564d427269646765000000000000000000000000000000006064820152608401610669565b61067c8282611228565b33600081815260016020908152604080832073ffffffffffffffffffffffffffffffffffffffff8716845290915281205490919083811015610822576040517f08c379a000000000000000000000000000000000000000000000000000000000815260206004820152602560248201527f45524332303a2064656372656173656420616c6c6f77616e63652062656c6f7760448201527f207a65726f0000000000000000000000000000000000000000000000000000006064820152608401610669565b6104f58286868403610b73565b6000336104d0818585610dfe565b834211156108cc576040517f08c379a0000000000000000000000000000000000000000000000000000000008152602060048201526024808201527f546f6b656e577261707065643a3a7065726d69743a204578706972656420706560448201527f726d6974000000000000000000000000000000000000000000000000000000006064820152608401610669565b73ffffffffffffffffffffffffffffffffffffffff8716600090815260056020526040812080547f6e71edae12b1b97f4d1f60370fef10105fa2faae0126114a169c64845d6126c9918a918a918a9190866109268361163c565b9091555060408051602081019690965273ffffffffffffffffffffffffffffffffffffffff94851690860152929091166060840152608083015260a082015260c0810186905260e0016040516020818303038152906040528051906020012090506000610991610500565b6040517f19010000000000000000000000000000000000000000000000000000000000006020820152602281019190915260428101839052606201604080517fffffffffffffffffffffffffffffffffffffffffffffffffffffffffffffffe08184030181528282528051602091820120600080855291840180845281905260ff89169284019290925260608301879052608083018690529092509060019060a0016020604051602081039080840390855afa158015610a55573d6000803e3d6000fd5b50506040517fffffffffffffffffffffffffffffffffffffffffffffffffffffffffffffffe0015191505073ffffffffffffffffffffffffffffffffffffffff811615801590610ad057508973ffffffffffffffffffffffffffffffffffffffff168173ffffffffffffffffffffffffffffffffffffffff16145b610b5c576040517f08c379a000000000000000000000000000000000000000000000000000000000815260206004820152602760248201527f546f6b656e577261707065643a3a7065726d69743a20496e76616c696420736960448201527f676e6174757265000000000000000000000000000000000000000000000000006064820152608401610669565b610b678a8a8a610b73565b50505050505050505050565b73ffffffffffffffffffffffffffffffffffffffff8316610c15576040517f08c379a0000000000000000000000000000000000000000000000000000000008152602060048201526024808201527f45524332303a20617070726f76652066726f6d20746865207a65726f2061646460448201527f72657373000000000000000000000000000000000000000000000000000000006064820152608401610669565b73ffffffffffffffffffffffffffffffffffffffff8216610cb8576040517f08c379a000000000000000000000000000000000000000000000000000000000815260206004820152602260248201527f45524332303a20617070726f766520746f20746865207a65726f20616464726560448201527f73730000000000000000000000000000000000000000000000000000000000006064820152608401610669565b73ffffffffffffffffffffffffffffffffffffffff83811660008181526001602090815260408083209487168084529482529182902085905590518481527f8c5be1e5ebec7d5bd14f71427d1e84f3dd0314c0f7b2291e5b200ac8c7c3b92591015b60405180910390a3505050565b73ffffffffffffffffffffffffffffffffffffffff8381166000908152600160209081526040808320938616835292905220547fffffffffffffffffffffffffffffffffffffffffffffffffffffffffffffffff8114610df85781811015610deb576040517f08c379a000000000000000000000000000000000000000000000000000000000815260206004820152601d60248201527f45524332303a20696e73756666696369656e7420616c6c6f77616e63650000006044820152606401610669565b610df88484848403610b73565b50505050565b73ffffffffffffffffffffffffffffffffffffffff8316610ea1576040517f08c379a000000000000000000000000000000000000000000000000000000000815260206004820152602560248201527f45524332303a207472616e736665722066726f6d20746865207a65726f20616460448201527f64726573730000000000000000000000000000000000000000000000000000006064820152608401610669565b73ffffffffffffffffffffffffffffffffffffffff8216610f44576040517f08c379a000000000000000000000000000000000000000000000000000000000815260206004820152602360248201527f45524332303a207472616e7366657220746f20746865207a65726f206164647260448201527f65737300000000000000000000000000000000000000000000000000000000006064820152608401610669565b73ffffffffffffffffffffffffffffffffffffffff831660009081526020819052604090205481811015610ffa576040517f08c379a000000000000000000000000000000000000000000000000000000000815260206004820152602660248201527f45524332303a207472616e7366657220616d6f756e742065786365656473206260448201527f616c616e636500000000000000000000000000000000000000000000000000006064820152608401610669565b73ffffffffffffffffffffffffffffffffffffffff848116600081815260208181526040808320878703905593871680835291849020805487019055925185815290927fddf252ad1be2c89b69c2b068fc378daa952ba7f163c4a11628f55a4df523b3ef910160405180910390a3610df8565b60007f8b73c3c69bb8fe3d512ecc4cf759cc79239f7b179b0ffacaa9a75d522b39400f611098610430565b8051602091820120604080518082018252600181527f310000000000000000000000000000000000000000000000000000000000000090840152805192830193909352918101919091527fc89efdaa54c0f20c7adf612882df0950f5a951637e0307cdcb4c672f298b8bc66060820152608081018390523060a082015260c001604051602081830303815290604052805190602001209050919050565b73ffffffffffffffffffffffffffffffffffffffff82166111b2576040517f08c379a000000000000000000000000000000000000000000000000000000000815260206004820152601f60248201527f45524332303a206d696e7420746f20746865207a65726f2061646472657373006044820152606401610669565b80600260008282546111c49190611629565b909155505073ffffffffffffffffffffffffffffffffffffffff8216600081815260208181526040808320805486019055518481527fddf252ad1be2c89b69c2b068fc378daa952ba7f163c4a11628f55a4df523b3ef910160405180910390a35050565b73ffffffffffffffffffffffffffffffffffffffff82166112cb576040517f08c379a000000000000000000000000000000000000000000000000000000000815260206004820152602160248201527f45524332303a206275726e2066726f6d20746865207a65726f2061646472657360448201527f73000000000000000000000000000000000000000000000000000000000000006064820152608401610669565b73ffffffffffffffffffffffffffffffffffffffff821660009081526020819052604090205481811015611381576040517f08c379a000000000000000000000000000000000000000000000000000000000815260206004820152602260248201527f45524332303a206275726e20616d6f756e7420657863656564732062616c616e60448201527f63650000000000000000000000000000000000000000000000000000000000006064820152608401610669565b73ffffffffffffffffffffffffffffffffffffffff83166000818152602081815260408083208686039055600280548790039055518581529192917fddf252ad1be2c89b69c2b068fc378daa952ba7f163c4a11628f55a4df523b3ef9101610d1a565b600060208083528351808285015260005b81811015611411578581018301518582016040015282016113f5565b5060006040828601015260407fffffffffffffffffffffffffffffffffffffffffffffffffffffffffffffffe0601f8301168501019250505092915050565b803573ffffffffffffffffffffffffffffffffffffffff8116811461147457600080fd5b919050565b6000806040838503121561148c57600080fd5b61149583611450565b946020939093013593505050565b6000806000606084860312156114b857600080fd5b6114c184611450565b92506114cf60208501611450565b9150604084013590509250925092565b6000602082840312156114f157600080fd5b6114fa82611450565b9392505050565b600080600080600080600060e0888a03121561151c57600080fd5b61152588611450565b965061153360208901611450565b95506040880135945060608801359350608088013560ff8116811461155757600080fd5b9699959850939692959460a0840135945060c09093013592915050565b6000806040838503121561158757600080fd5b61159083611450565b915061159e60208401611450565b90509250929050565b600181811c908216806115bb57607f821691505b6020821081036115f4577f4e487b7100000000000000000000000000000000000000000000000000000000600052602260045260246000fd5b50919050565b7f4e487b7100000000000000000000000000000000000000000000000000000000600052601160045260246000fd5b808201808211156104d6576104d66115fa565b60007fffffffffffffffffffffffffffffffffffffffffffffffffffffffffffffffff820361166d5761166d6115fa565b506001019056fea26469706673582212206fe049be388a1d04319b9913fe6d100c4c8e272fe0f5748eb056bd0622beabcc64736f6c63430008140033a26469706673582212208133965b5854bcd9fe2de3358c4d8e54252284d6b24b0a58333cd1b331f16fee64736f6c63430008140033",
  "linkReferences": {},
  "deployedLinkReferences": {}
}