{
  "_format": "hh-sol-artifact-1",
  "contractName": "PolygonZkEVMBridgeMock",
  "sourceName": "contracts/mocks/PolygonZkEVMBridgeMock.sol",
  "abi": [
    {
      "inputs": [],
      "name": "AlreadyClaimed",
      "type": "error"
    },
    {
      "inputs": [],
      "name": "AmountDoesNotMatchMsgValue",
      "type": "error"
    },
    {
      "inputs": [],
      "name": "DestinationNetworkInvalid",
      "type": "error"
    },
    {
      "inputs": [],
      "name": "EtherTransferFailed",
      "type": "error"
    },
    {
      "inputs": [],
      "name": "GlobalExitRootInvalid",
      "type": "error"
    },
    {
      "inputs": [],
      "name": "InvalidSmtProof",
      "type": "error"
    },
    {
      "inputs": [],
      "name": "MerkleTreeFull",
      "type": "error"
    },
    {
      "inputs": [],
      "name": "MessageFailed",
      "type": "error"
    },
    {
      "inputs": [],
      "name": "MsgValueNotZero",
      "type": "error"
    },
    {
      "inputs": [],
      "name": "NotValidAmount",
      "type": "error"
    },
    {
      "inputs": [],
      "name": "NotValidOwner",
      "type": "error"
    },
    {
      "inputs": [],
      "name": "NotValidSignature",
      "type": "error"
    },
    {
      "inputs": [],
      "name": "NotValidSpender",
      "type": "error"
    },
    {
      "inputs": [],
      "name": "OnlyAdmin",
      "type": "error"
    },
    {
      "inputs": [],
      "name": "OnlyEmergencyState",
      "type": "error"
    },
    {
      "inputs": [],
      "name": "OnlyNotEmergencyState",
      "type": "error"
    },
    {
      "inputs": [],
      "name": "OnlyPolygonZkEVM",
      "type": "error"
    },
    {
      "anonymous": false,
      "inputs": [
        {
          "indexed": false,
          "internalType": "uint8",
          "name": "leafType",
          "type": "uint8"
        },
        {
          "indexed": false,
          "internalType": "uint32",
          "name": "originNetwork",
          "type": "uint32"
        },
        {
          "indexed": false,
          "internalType": "address",
          "name": "originAddress",
          "type": "address"
        },
        {
          "indexed": false,
          "internalType": "uint32",
          "name": "destinationNetwork",
          "type": "uint32"
        },
        {
          "indexed": false,
          "internalType": "address",
          "name": "destinationAddress",
          "type": "address"
        },
        {
          "indexed": false,
          "internalType": "uint256",
          "name": "amount",
          "type": "uint256"
        },
        {
          "indexed": false,
          "internalType": "bytes",
          "name": "metadata",
          "type": "bytes"
        },
        {
          "indexed": false,
          "internalType": "uint32",
          "name": "depositCount",
          "type": "uint32"
        }
      ],
      "name": "BridgeEvent",
      "type": "event"
    },
    {
      "anonymous": false,
      "inputs": [
        {
          "indexed": false,
          "internalType": "uint32",
          "name": "index",
          "type": "uint32"
        },
        {
          "indexed": false,
          "internalType": "uint32",
          "name": "originNetwork",
          "type": "uint32"
        },
        {
          "indexed": false,
          "internalType": "address",
          "name": "originAddress",
          "type": "address"
        },
        {
          "indexed": false,
          "internalType": "address",
          "name": "destinationAddress",
          "type": "address"
        },
        {
          "indexed": false,
          "internalType": "uint256",
          "name": "amount",
          "type": "uint256"
        }
      ],
      "name": "ClaimEvent",
      "type": "event"
    },
    {
      "anonymous": false,
      "inputs": [],
      "name": "EmergencyStateActivated",
      "type": "event"
    },
    {
      "anonymous": false,
      "inputs": [],
      "name": "EmergencyStateDeactivated",
      "type": "event"
    },
    {
      "anonymous": false,
      "inputs": [
        {
          "indexed": false,
          "internalType": "uint8",
          "name": "version",
          "type": "uint8"
        }
      ],
      "name": "Initialized",
      "type": "event"
    },
    {
      "anonymous": false,
      "inputs": [
        {
          "indexed": false,
          "internalType": "uint32",
          "name": "originNetwork",
          "type": "uint32"
        },
        {
          "indexed": false,
          "internalType": "address",
          "name": "originTokenAddress",
          "type": "address"
        },
        {
          "indexed": false,
          "internalType": "address",
          "name": "wrappedTokenAddress",
          "type": "address"
        },
        {
          "indexed": false,
          "internalType": "bytes",
          "name": "metadata",
          "type": "bytes"
        }
      ],
      "name": "NewWrappedToken",
      "type": "event"
    },
    {
      "anonymous": false,
      "inputs": [
        {
          "indexed": true,
          "internalType": "address",
          "name": "previousOwner",
          "type": "address"
        },
        {
          "indexed": true,
          "internalType": "address",
          "name": "newOwner",
          "type": "address"
        }
      ],
      "name": "OwnershipTransferred",
      "type": "event"
    },
    {
      "inputs": [],
      "name": "activateEmergencyState",
      "outputs": [],
      "stateMutability": "nonpayable",
      "type": "function"
    },
    {
      "inputs": [],
      "name": "admin",
      "outputs": [
        {
          "internalType": "address",
          "name": "",
          "type": "address"
        }
      ],
      "stateMutability": "view",
      "type": "function"
    },
    {
      "inputs": [
        {
          "internalType": "uint32",
          "name": "destinationNetwork",
          "type": "uint32"
        },
        {
          "internalType": "address",
          "name": "destinationAddress",
          "type": "address"
        },
        {
          "internalType": "uint256",
          "name": "amount",
          "type": "uint256"
        },
        {
          "internalType": "address",
          "name": "token",
          "type": "address"
        },
        {
          "internalType": "bool",
          "name": "forceUpdateGlobalExitRoot",
          "type": "bool"
        },
        {
          "internalType": "bytes",
          "name": "permitData",
          "type": "bytes"
        }
      ],
      "name": "bridgeAsset",
      "outputs": [],
      "stateMutability": "payable",
      "type": "function"
    },
    {
      "inputs": [],
      "name": "bridgeFee",
      "outputs": [
        {
          "internalType": "uint256",
          "name": "",
          "type": "uint256"
        }
      ],
      "stateMutability": "view",
      "type": "function"
    },
    {
      "inputs": [
        {
          "internalType": "bytes32[32]",
          "name": "smtProof",
          "type": "bytes32[32]"
        },
        {
          "internalType": "uint32",
          "name": "index",
          "type": "uint32"
        },
        {
          "internalType": "bytes32",
          "name": "mainnetExitRoot",
          "type": "bytes32"
        },
        {
          "internalType": "bytes32",
          "name": "rollupExitRoot",
          "type": "bytes32"
        },
        {
          "internalType": "uint32",
          "name": "originNetwork",
          "type": "uint32"
        },
        {
          "internalType": "address",
          "name": "originTokenAddress",
          "type": "address"
        },
        {
          "internalType": "uint32",
          "name": "destinationNetwork",
          "type": "uint32"
        },
        {
          "internalType": "address",
          "name": "destinationAddress",
          "type": "address"
        },
        {
          "internalType": "uint256",
          "name": "amount",
          "type": "uint256"
        },
        {
          "internalType": "bytes",
          "name": "metadata",
          "type": "bytes"
        }
      ],
      "name": "claimAsset",
      "outputs": [],
      "stateMutability": "nonpayable",
      "type": "function"
    },
    {
      "inputs": [
        {
          "internalType": "uint256",
          "name": "",
          "type": "uint256"
        }
      ],
      "name": "claimedBitMap",
      "outputs": [
        {
          "internalType": "uint256",
          "name": "",
          "type": "uint256"
        }
      ],
      "stateMutability": "view",
      "type": "function"
    },
    {
      "inputs": [],
      "name": "deactivateEmergencyState",
      "outputs": [],
      "stateMutability": "nonpayable",
      "type": "function"
    },
    {
      "inputs": [],
      "name": "depositCount",
      "outputs": [
        {
          "internalType": "uint256",
          "name": "",
          "type": "uint256"
        }
      ],
      "stateMutability": "view",
      "type": "function"
    },
    {
      "inputs": [],
      "name": "feeAddress",
      "outputs": [
        {
          "internalType": "address",
          "name": "",
          "type": "address"
        }
      ],
      "stateMutability": "view",
      "type": "function"
    },
    {
      "inputs": [],
      "name": "gasTokenAddress",
      "outputs": [
        {
          "internalType": "address",
          "name": "",
          "type": "address"
        }
      ],
      "stateMutability": "view",
      "type": "function"
    },
    {
      "inputs": [],
      "name": "gasTokenMetadata",
      "outputs": [
        {
          "internalType": "bytes",
          "name": "",
          "type": "bytes"
        }
      ],
      "stateMutability": "view",
      "type": "function"
    },
    {
      "inputs": [],
      "name": "getDepositRoot",
      "outputs": [
        {
          "internalType": "bytes32",
          "name": "",
          "type": "bytes32"
        }
      ],
      "stateMutability": "view",
      "type": "function"
    },
    {
      "inputs": [
        {
          "internalType": "uint8",
          "name": "leafType",
          "type": "uint8"
        },
        {
          "internalType": "uint32",
          "name": "originNetwork",
          "type": "uint32"
        },
        {
          "internalType": "address",
          "name": "originAddress",
          "type": "address"
        },
        {
          "internalType": "uint32",
          "name": "destinationNetwork",
          "type": "uint32"
        },
        {
          "internalType": "address",
          "name": "destinationAddress",
          "type": "address"
        },
        {
          "internalType": "uint256",
          "name": "amount",
          "type": "uint256"
        },
        {
          "internalType": "bytes32",
          "name": "metadataHash",
          "type": "bytes32"
        }
      ],
      "name": "getLeafValue",
      "outputs": [
        {
          "internalType": "bytes32",
          "name": "",
          "type": "bytes32"
        }
      ],
      "stateMutability": "pure",
      "type": "function"
    },
    {
      "inputs": [
        {
          "internalType": "uint32",
          "name": "originNetwork",
          "type": "uint32"
        },
        {
          "internalType": "address",
          "name": "originTokenAddress",
          "type": "address"
        }
      ],
      "name": "getTokenWrappedAddress",
      "outputs": [
        {
          "internalType": "address",
          "name": "",
          "type": "address"
        }
      ],
      "stateMutability": "view",
      "type": "function"
    },
    {
      "inputs": [],
      "name": "globalExitRootManager",
      "outputs": [
        {
          "internalType": "contract IBasePolygonZkEVMGlobalExitRoot",
          "name": "",
          "type": "address"
        }
      ],
      "stateMutability": "view",
      "type": "function"
    },
    {
      "inputs": [
        {
          "internalType": "uint32",
          "name": "_networkID",
          "type": "uint32"
        },
        {
          "internalType": "contract IBasePolygonZkEVMGlobalExitRoot",
          "name": "_globalExitRootManager",
          "type": "address"
        },
        {
          "internalType": "address",
          "name": "_polygonZkEVMaddress",
          "type": "address"
        },
        {
          "internalType": "address",
          "name": "_admin",
          "type": "address"
        },
        {
          "internalType": "address",
          "name": "_gasTokenAddress",
          "type": "address"
        },
        {
          "internalType": "bytes",
          "name": "_gasTokenMetadata",
          "type": "bytes"
        }
      ],
      "name": "initialize",
      "outputs": [],
      "stateMutability": "nonpayable",
      "type": "function"
    },
    {
      "inputs": [
        {
          "internalType": "uint256",
          "name": "index",
          "type": "uint256"
        }
      ],
      "name": "isClaimed",
      "outputs": [
        {
          "internalType": "bool",
          "name": "",
          "type": "bool"
        }
      ],
      "stateMutability": "view",
      "type": "function"
    },
    {
      "inputs": [],
      "name": "isEmergencyState",
      "outputs": [
        {
          "internalType": "bool",
          "name": "",
          "type": "bool"
        }
      ],
      "stateMutability": "view",
      "type": "function"
    },
    {
      "inputs": [],
      "name": "lastUpdatedDepositCount",
      "outputs": [
        {
          "internalType": "uint32",
          "name": "",
          "type": "uint32"
        }
      ],
      "stateMutability": "view",
      "type": "function"
    },
    {
      "inputs": [],
      "name": "maxEtherBridge",
      "outputs": [
        {
          "internalType": "uint256",
          "name": "",
          "type": "uint256"
        }
      ],
      "stateMutability": "view",
      "type": "function"
    },
    {
      "inputs": [],
      "name": "networkID",
      "outputs": [
        {
          "internalType": "uint32",
          "name": "",
          "type": "uint32"
        }
      ],
      "stateMutability": "view",
      "type": "function"
    },
    {
      "inputs": [],
      "name": "owner",
      "outputs": [
        {
          "internalType": "address",
          "name": "",
          "type": "address"
        }
      ],
      "stateMutability": "view",
      "type": "function"
    },
    {
      "inputs": [],
      "name": "polygonZkEVMaddress",
      "outputs": [
        {
          "internalType": "address",
          "name": "",
          "type": "address"
        }
      ],
      "stateMutability": "view",
      "type": "function"
    },
    {
      "inputs": [
        {
          "internalType": "uint32",
          "name": "originNetwork",
          "type": "uint32"
        },
        {
          "internalType": "address",
          "name": "originTokenAddress",
          "type": "address"
        },
        {
          "internalType": "string",
          "name": "name",
          "type": "string"
        },
        {
          "internalType": "string",
          "name": "symbol",
          "type": "string"
        },
        {
          "internalType": "uint8",
          "name": "decimals",
          "type": "uint8"
        }
      ],
      "name": "precalculatedWrapperAddress",
      "outputs": [
        {
          "internalType": "address",
          "name": "",
          "type": "address"
        }
      ],
      "stateMutability": "view",
      "type": "function"
    },
    {
      "inputs": [],
      "name": "renounceOwnership",
      "outputs": [],
      "stateMutability": "nonpayable",
      "type": "function"
    },
    {
      "inputs": [
        {
          "internalType": "address",
          "name": "_feeAddress",
          "type": "address"
        },
        {
          "internalType": "uint256",
          "name": "_bridgeFee",
          "type": "uint256"
        }
      ],
      "name": "setBridgeSettingsFee",
      "outputs": [],
      "stateMutability": "nonpayable",
      "type": "function"
    },
    {
      "inputs": [
        {
          "internalType": "uint256",
          "name": "_maxEtherBridge",
          "type": "uint256"
        }
      ],
      "name": "setMaxEtherBridge",
      "outputs": [],
      "stateMutability": "nonpayable",
      "type": "function"
    },
    {
      "inputs": [
        {
          "internalType": "uint32",
          "name": "_networkID",
          "type": "uint32"
        }
      ],
      "name": "setNetworkID",
      "outputs": [],
      "stateMutability": "nonpayable",
      "type": "function"
    },
    {
      "inputs": [
        {
          "internalType": "bytes32",
          "name": "",
          "type": "bytes32"
        }
      ],
      "name": "tokenInfoToWrappedToken",
      "outputs": [
        {
          "internalType": "address",
          "name": "",
          "type": "address"
        }
      ],
      "stateMutability": "view",
      "type": "function"
    },
    {
      "inputs": [
        {
          "internalType": "address",
          "name": "newOwner",
          "type": "address"
        }
      ],
      "name": "transferOwnership",
      "outputs": [],
      "stateMutability": "nonpayable",
      "type": "function"
    },
    {
      "inputs": [],
      "name": "updateGlobalExitRoot",
      "outputs": [],
      "stateMutability": "nonpayable",
      "type": "function"
    },
    {
      "inputs": [
        {
          "internalType": "bytes32",
          "name": "leafHash",
          "type": "bytes32"
        },
        {
          "internalType": "bytes32[32]",
          "name": "smtProof",
          "type": "bytes32[32]"
        },
        {
          "internalType": "uint32",
          "name": "index",
          "type": "uint32"
        },
        {
          "internalType": "bytes32",
          "name": "root",
          "type": "bytes32"
        }
      ],
      "name": "verifyMerkleProof",
      "outputs": [
        {
          "internalType": "bool",
          "name": "",
          "type": "bool"
        }
      ],
      "stateMutability": "pure",
      "type": "function"
    },
    {
      "inputs": [
        {
          "internalType": "address",
          "name": "",
          "type": "address"
        }
      ],
      "name": "wrappedTokenToTokenInfo",
      "outputs": [
        {
          "internalType": "uint32",
          "name": "originNetwork",
          "type": "uint32"
        },
        {
          "internalType": "address",
          "name": "originTokenAddress",
          "type": "address"
        }
      ],
      "stateMutability": "view",
      "type": "function"
    }
  ],
  "bytecode": "0x608060405234801561001057600080fd5b506162f0806100206000396000f3fe608060405260043610620002285760003560e01c806379e2cf971162000134578063bab161bf11620000be578063dbc169761162000089578063f2fde38b116200006c578063f2fde38b1462000838578063f851a440146200085d578063fb570834146200088c57600080fd5b8063dbc1697614620007ef578063ee25560b146200080757600080fd5b8063bab161bf146200072a578063be5831c71462000764578063cd58657914620007a0578063d02103ca14620007b757600080fd5b806391e57e2d11620000ff57806391e57e2d14620006835780639e34070f146200069b578063a17579c114620006e0578063aaa13cc2146200070557600080fd5b806379e2cf9714620005df57806381b1c17414620005f757806382b12dd7146200063e5780638da5cb5b146200065657600080fd5b8063318aee3d11620001b65780633e19704311620001815780633e197043146200047f578063412753581462000573578063715018a614620005a2578063787e05da14620005ba57600080fd5b8063318aee3d146200038057806334ac9cf214620004095780633ae0504714620004385780633c351e10146200045057600080fd5b80632b5e42e711620001f75780632b5e42e714620002ea5780632c3f58cd146200030f5780632cffd02e14620003345780632dfdf0b5146200035957600080fd5b806315064c96146200022d5780632072f6c5146200025e57806322e95f2c146200027857806327aef4e814620002c3575b600080fd5b3480156200023a57600080fd5b50606854620002499060ff1681565b60405190151581526020015b60405180910390f35b3480156200026b57600080fd5b5062000276620008b1565b005b3480156200028557600080fd5b506200029d62000297366004620037f5565b6200090f565b60405173ffffffffffffffffffffffffffffffffffffffff909116815260200162000255565b348015620002d057600080fd5b50620002db620009b2565b604051620002559190620038a3565b348015620002f757600080fd5b506200027662000309366004620038bf565b62000a48565b3480156200031c57600080fd5b50620002766200032e366004620038d9565b62000a57565b3480156200034157600080fd5b50620002766200035336600462003956565b62000a9d565b3480156200036657600080fd5b506200037160535481565b60405190815260200162000255565b3480156200038d57600080fd5b50620003d76200039f36600462003a3c565b606b6020526000908152604090205463ffffffff811690640100000000900473ffffffffffffffffffffffffffffffffffffffff1682565b6040805163ffffffff909316835273ffffffffffffffffffffffffffffffffffffffff90911660208301520162000255565b3480156200041657600080fd5b50606c546200029d9073ffffffffffffffffffffffffffffffffffffffff1681565b3480156200044557600080fd5b506200037162001041565b3480156200045d57600080fd5b506070546200029d9073ffffffffffffffffffffffffffffffffffffffff1681565b3480156200048c57600080fd5b50620003716200049e36600462003a6c565b6040517fff0000000000000000000000000000000000000000000000000000000000000060f889901b1660208201527fffffffff0000000000000000000000000000000000000000000000000000000060e088811b821660218401527fffffffffffffffffffffffffffffffffffffffff000000000000000000000000606089811b821660258601529188901b909216603984015285901b16603d8201526051810183905260718101829052600090609101604051602081830303815290604052805190602001209050979650505050505050565b3480156200058057600080fd5b50606f546200029d9073ffffffffffffffffffffffffffffffffffffffff1681565b348015620005af57600080fd5b506200027662001127565b348015620005c757600080fd5b5062000276620005d936600462003af6565b6200113d565b348015620005ec57600080fd5b5062000276620011fe565b3480156200060457600080fd5b506200029d62000616366004620038bf565b606a6020526000908152604090205473ffffffffffffffffffffffffffffffffffffffff1681565b3480156200064b57600080fd5b5062000371606e5481565b3480156200066357600080fd5b5060a45473ffffffffffffffffffffffffffffffffffffffff166200029d565b3480156200069057600080fd5b506200037160d65481565b348015620006a857600080fd5b5062000249620006ba366004620038bf565b600881901c600090815260696020526040902054600160ff9092169190911b9081161490565b348015620006ed57600080fd5b5062000276620006ff36600462003c32565b62001238565b3480156200071257600080fd5b506200029d6200072436600462003cec565b620014c1565b3480156200073757600080fd5b506068546200074e90610100900463ffffffff1681565b60405163ffffffff909116815260200162000255565b3480156200077157600080fd5b506068546200074e90790100000000000000000000000000000000000000000000000000900463ffffffff1681565b62000276620007b136600462003daf565b620016ad565b348015620007c457600080fd5b506068546200029d9065010000000000900473ffffffffffffffffffffffffffffffffffffffff1681565b348015620007fc57600080fd5b506200027662001778565b3480156200081457600080fd5b506200037162000826366004620038bf565b60696020526000908152604090205481565b3480156200084557600080fd5b50620002766200085736600462003a3c565b620017d4565b3480156200086a57600080fd5b50606d546200029d9073ffffffffffffffffffffffffffffffffffffffff1681565b3480156200089957600080fd5b5062000249620008ab36600462003e51565b62001891565b606c5473ffffffffffffffffffffffffffffffffffffffff16331462000903576040517fe2e8106b00000000000000000000000000000000000000000000000000000000815260040160405180910390fd5b6200090d6200197a565b565b6040805160e084901b7fffffffff0000000000000000000000000000000000000000000000000000000016602080830191909152606084901b7fffffffffffffffffffffffffffffffffffffffff00000000000000000000000016602483015282516018818403018152603890920183528151918101919091206000908152606a909152205473ffffffffffffffffffffffffffffffffffffffff165b92915050565b60718054620009c19062003e9e565b80601f0160208091040260200160405190810160405280929190818152602001828054620009ef9062003e9e565b801562000a405780601f1062000a145761010080835404028352916020019162000a40565b820191906000526020600020905b81548152906001019060200180831162000a2257829003601f168201915b505050505081565b62000a5262001a0e565b60d655565b62000a6162001a0e565b6068805463ffffffff909216610100027fffffffffffffffffffffffffffffffffffffffffffffffffffffff00000000ff909216919091179055565b60685460ff161562000adb576040517f2f0047fc00000000000000000000000000000000000000000000000000000000815260040160405180910390fd5b62000af28b8b8b8b8b8b8b8b8b8b8b600062001a91565b73ffffffffffffffffffffffffffffffffffffffff861662000bce576040805160008082526020820190925273ffffffffffffffffffffffffffffffffffffffff861690859060405162000b47919062003ef3565b60006040518083038185875af1925050503d806000811462000b86576040519150601f19603f3d011682016040523d82523d6000602084013e62000b8b565b606091505b505090508062000bc7576040517f6747a28800000000000000000000000000000000000000000000000000000000815260040160405180910390fd5b5062000fc9565b60685463ffffffff61010090910481169088160362000c105762000c0a73ffffffffffffffffffffffffffffffffffffffff8716858562001d5f565b62000fc9565b6040517fffffffff0000000000000000000000000000000000000000000000000000000060e089901b1660208201527fffffffffffffffffffffffffffffffffffffffff000000000000000000000000606088901b166024820152600090603801604080517fffffffffffffffffffffffffffffffffffffffffffffffffffffffffffffffe081840301815291815281516020928301206000818152606a90935291205490915073ffffffffffffffffffffffffffffffffffffffff168062000f3b576000808062000ce58688018862003f34565b92509250925060008584848460405162000cff90620037af565b62000d0d9392919062003fb5565b8190604051809103906000f590508015801562000d2e573d6000803e3d6000fd5b506040517f40c10f1900000000000000000000000000000000000000000000000000000000815273ffffffffffffffffffffffffffffffffffffffff8c81166004830152602482018c9052919250908216906340c10f1990604401600060405180830381600087803b15801562000da457600080fd5b505af115801562000db9573d6000803e3d6000fd5b5050505080606a600088815260200190815260200160002060006101000a81548173ffffffffffffffffffffffffffffffffffffffff021916908373ffffffffffffffffffffffffffffffffffffffff16021790555060405180604001604052808e63ffffffff1681526020018d73ffffffffffffffffffffffffffffffffffffffff16815250606b60008373ffffffffffffffffffffffffffffffffffffffff1673ffffffffffffffffffffffffffffffffffffffff16815260200190815260200160002060008201518160000160006101000a81548163ffffffff021916908363ffffffff16021790555060208201518160000160046101000a81548173ffffffffffffffffffffffffffffffffffffffff021916908373ffffffffffffffffffffffffffffffffffffffff1602179055509050507f490e59a1701b938786ac72570a1efeac994a3dbe96e2e883e19e902ace6e6a398d8d838b8b60405162000f299594939291906200403b565b60405180910390a15050505062000fc6565b6040517f40c10f1900000000000000000000000000000000000000000000000000000000815273ffffffffffffffffffffffffffffffffffffffff8781166004830152602482018790528216906340c10f1990604401600060405180830381600087803b15801562000fac57600080fd5b505af115801562000fc1573d6000803e3d6000fd5b505050505b50505b6040805163ffffffff8c811682528916602082015273ffffffffffffffffffffffffffffffffffffffff88811682840152861660608201526080810185905290517f25308c93ceeed162da955b3f7ce3e3f93606579e40fb92029faa9efe275459839181900360a00190a15050505050505050505050565b605354600090819081805b60208110156200111e578083901c600116600103620010af57603381602081106200107b576200107b62004083565b01546040805160208101929092528101859052606001604051602081830303815290604052805190602001209350620010dc565b60408051602081018690529081018390526060016040516020818303038152906040528051906020012093505b604080516020810184905290810183905260600160405160208183030381529060405280519060200120915080806200111590620040e1565b9150506200104c565b50919392505050565b6200113162001a0e565b6200090d600062001e3a565b606d5473ffffffffffffffffffffffffffffffffffffffff1633146200118f576040517f4755657900000000000000000000000000000000000000000000000000000000815260040160405180910390fd5b73ffffffffffffffffffffffffffffffffffffffff821615620011ed57606f80547fffffffffffffffffffffffff00000000000000000000000000000000000000001673ffffffffffffffffffffffffffffffffffffffff84161790555b8015620011fa57606e8190555b5050565b605354606854790100000000000000000000000000000000000000000000000000900463ffffffff1610156200090d576200090d62001eb1565b600054610100900460ff1615808015620012595750600054600160ff909116105b80620012755750303b15801562001275575060005460ff166001145b62001307576040517f08c379a000000000000000000000000000000000000000000000000000000000815260206004820152602e60248201527f496e697469616c697a61626c653a20636f6e747261637420697320616c72656160448201527f647920696e697469616c697a656400000000000000000000000000000000000060648201526084015b60405180910390fd5b600080547fffffffffffffffffffffffffffffffffffffffffffffffffffffffffffffff0016600117905580156200136657600080547fffffffffffffffffffffffffffffffffffffffffffffffffffffffffffff00ff166101001790555b606880547fffffffffffffff000000000000000000000000000000000000000000000000ff1661010063ffffffff8a16027fffffffffffffff0000000000000000000000000000000000000000ffffffffff16176501000000000073ffffffffffffffffffffffffffffffffffffffff8981169190910291909117909155606c80547fffffffffffffffffffffffff000000000000000000000000000000000000000090811688841617909155606d805482168784161790556070805490911691851691909117905560716200143d83826200416e565b506703782dace9d9000060d6556200145462001f8c565b8015620014b857600080547fffffffffffffffffffffffffffffffffffffffffffffffffffffffffffff00ff169055604051600181527f7f26b83ff96e1f2b6a682f133852f6798a09c465da95921460cefb38474024989060200160405180910390a15b50505050505050565b6040517fffffffff0000000000000000000000000000000000000000000000000000000060e089901b1660208201527fffffffffffffffffffffffffffffffffffffffff000000000000000000000000606088901b1660248201526000908190603801604051602081830303815290604052805190602001209050600060ff60f81b3083604051806020016200155790620037af565b7fffffffffffffffffffffffffffffffffffffffffffffffffffffffffffffffe082820381018352601f909101166040819052620015a2908d908d908d908d908d9060200162004295565b604080517fffffffffffffffffffffffffffffffffffffffffffffffffffffffffffffffe081840301815290829052620015e09291602001620042d6565b604051602081830303815290604052805190602001206040516020016200166994939291907fff0000000000000000000000000000000000000000000000000000000000000094909416845260609290921b7fffffffffffffffffffffffffffffffffffffffff0000000000000000000000001660018401526015830152603582015260550190565b604080518083037fffffffffffffffffffffffffffffffffffffffffffffffffffffffffffffffe001815291905280516020909101209a9950505050505050505050565b60d65434111562001767576040517f08c379a000000000000000000000000000000000000000000000000000000000815260206004820152604760248201527f506f6c79676f6e5a6b45564d4272696467653a3a62726964676541737365743a60448201527f2043616e6e6f7420627269646765206d6f7265207468616e206d61784574686560648201527f7242726964676500000000000000000000000000000000000000000000000000608482015260a401620012fe565b620014b88787878787878762002030565b606c5473ffffffffffffffffffffffffffffffffffffffff163314620017ca576040517fe2e8106b00000000000000000000000000000000000000000000000000000000815260040160405180910390fd5b6200090d62002770565b620017de62001a0e565b73ffffffffffffffffffffffffffffffffffffffff811662001883576040517f08c379a000000000000000000000000000000000000000000000000000000000815260206004820152602660248201527f4f776e61626c653a206e6577206f776e657220697320746865207a65726f206160448201527f64647265737300000000000000000000000000000000000000000000000000006064820152608401620012fe565b6200188e8162001e3a565b50565b600084815b60208110156200196c57600163ffffffff8616821c811690036200190857858160208110620018c957620018c962004083565b602002013582604051602001620018ea929190918252602082015260400190565b60405160208183030381529060405280519060200120915062001957565b818682602081106200191e576200191e62004083565b60200201356040516020016200193e929190918252602082015260400190565b6040516020818303038152906040528051906020012091505b806200196381620040e1565b91505062001896565b50821490505b949350505050565b60685460ff1615620019b8576040517f2f0047fc00000000000000000000000000000000000000000000000000000000815260040160405180910390fd5b606880547fffffffffffffffffffffffffffffffffffffffffffffffffffffffffffffff001660011790556040517f2261efe5aef6fedc1fd1550b25facc9181745623049c7901287030b9ad1a549790600090a1565b60a45473ffffffffffffffffffffffffffffffffffffffff1633146200090d576040517f08c379a000000000000000000000000000000000000000000000000000000000815260206004820181905260248201527f4f776e61626c653a2063616c6c6572206973206e6f7420746865206f776e65726044820152606401620012fe565b62001aa28b63ffffffff1662002800565b6068546040805160208082018e90528183018d9052825180830384018152606083019384905280519101207f257b363200000000000000000000000000000000000000000000000000000000909252606481019190915260009165010000000000900473ffffffffffffffffffffffffffffffffffffffff169063257b3632906084016020604051808303816000875af115801562001b45573d6000803e3d6000fd5b505050506040513d601f19601f8201168201806040525081019062001b6b919062004309565b90508060000362001ba7576040517e2f6fad00000000000000000000000000000000000000000000000000000000815260040160405180910390fd5b60685463ffffffff888116610100909204161462001bf1576040517f0595ea2e00000000000000000000000000000000000000000000000000000000815260040160405180910390fd5b606854600090610100900463ffffffff1662001c0f57508962001c12565b508a5b62001d1862001d0f848c8c8c8c8c8c8c60405162001c3292919062004323565b60405180910390206040517fff0000000000000000000000000000000000000000000000000000000000000060f889901b1660208201527fffffffff0000000000000000000000000000000000000000000000000000000060e088811b821660218401527fffffffffffffffffffffffffffffffffffffffff000000000000000000000000606089811b821660258601529188901b909216603984015285901b16603d8201526051810183905260718101829052600090609101604051602081830303815290604052805190602001209050979650505050505050565b8f8f8462001891565b62001d4f576040517fe0417cec00000000000000000000000000000000000000000000000000000000815260040160405180910390fd5b5050505050505050505050505050565b60405173ffffffffffffffffffffffffffffffffffffffff831660248201526044810182905262001e359084907fa9059cbb00000000000000000000000000000000000000000000000000000000906064015b604080517fffffffffffffffffffffffffffffffffffffffffffffffffffffffffffffffe08184030181529190526020810180517bffffffffffffffffffffffffffffffffffffffffffffffffffffffff167fffffffff00000000000000000000000000000000000000000000000000000000909316929092179091526200286c565b505050565b60a4805473ffffffffffffffffffffffffffffffffffffffff8381167fffffffffffffffffffffffff0000000000000000000000000000000000000000831681179093556040519116919082907f8be0079c531659141344cd1fd0a4f28419497f9722a3daafe3b4186f6b6457e090600090a35050565b6053546068805463ffffffff909216790100000000000000000000000000000000000000000000000000027fffffff00000000ffffffffffffffffffffffffffffffffffffffffffffffffff909216919091179081905573ffffffffffffffffffffffffffffffffffffffff65010000000000909104166333d6247d62001f3762001041565b6040518263ffffffff1660e01b815260040162001f5691815260200190565b600060405180830381600087803b15801562001f7157600080fd5b505af115801562001f86573d6000803e3d6000fd5b50505050565b600054610100900460ff1662002025576040517f08c379a000000000000000000000000000000000000000000000000000000000815260206004820152602b60248201527f496e697469616c697a61626c653a20636f6e7472616374206973206e6f74206960448201527f6e697469616c697a696e670000000000000000000000000000000000000000006064820152608401620012fe565b6200090d3362001e3a565b60685460ff16156200206e576040517f2f0047fc00000000000000000000000000000000000000000000000000000000815260040160405180910390fd5b620020786200297f565b60685463ffffffff8881166101009092041614806200209e5750600263ffffffff881610155b15620020d6576040517f0595ea2e00000000000000000000000000000000000000000000000000000000815260040160405180910390fd5b60008060608773ffffffffffffffffffffffffffffffffffffffff88166200221e5788606e543462002109919062004333565b1462002141576040517fb89240f500000000000000000000000000000000000000000000000000000000815260040160405180910390fd5b60705473ffffffffffffffffffffffffffffffffffffffff161562002214576070546071805473ffffffffffffffffffffffffffffffffffffffff9092169550906200218d9062003e9e565b80601f0160208091040260200160405190810160405280929190818152602001828054620021bb9062003e9e565b80156200220c5780601f10620021e0576101008083540402835291602001916200220c565b820191906000526020600020905b815481529060010190602001808311620021ee57829003601f168201915b505050505091505b6000925062002544565b606e5434146200225a576040517fb89240f500000000000000000000000000000000000000000000000000000000815260040160405180910390fd5b73ffffffffffffffffffffffffffffffffffffffff8089166000908152606b602090815260409182902082518084019093525463ffffffff81168352640100000000900490921691810182905290156200234a576040517f9dc29fac000000000000000000000000000000000000000000000000000000008152336004820152602481018b905273ffffffffffffffffffffffffffffffffffffffff8a1690639dc29fac90604401600060405180830381600087803b1580156200231d57600080fd5b505af115801562002332573d6000803e3d6000fd5b50505050806020015194508060000151935062002519565b85156200235f576200235f898b8989620029f4565b6040517f70a0823100000000000000000000000000000000000000000000000000000000815230600482015260009073ffffffffffffffffffffffffffffffffffffffff8b16906370a0823190602401602060405180830381865afa158015620023cd573d6000803e3d6000fd5b505050506040513d601f19601f82011682018060405250810190620023f3919062004309565b90506200241973ffffffffffffffffffffffffffffffffffffffff8b1633308e62002f12565b6040517f70a0823100000000000000000000000000000000000000000000000000000000815230600482015260009073ffffffffffffffffffffffffffffffffffffffff8c16906370a0823190602401602060405180830381865afa15801562002487573d6000803e3d6000fd5b505050506040513d601f19601f82011682018060405250810190620024ad919062004309565b9050620024bb828262004333565b6068548c9850610100900463ffffffff1696509350620024db8762002f72565b620024e68c6200308a565b620024f18d62003197565b604051602001620025059392919062003fb5565b604051602081830303815290604052945050505b60705473ffffffffffffffffffffffffffffffffffffffff908116908616036200254257600094505b505b7f501781209a1f8899323b96b4ef08b168df93e0a90c673d1e4cce39366cb62f9b600084868e8e86886053546040516200258698979695949392919062004349565b60405180910390a1620026806200267a600085878f8f8789805190602001206040517fff0000000000000000000000000000000000000000000000000000000000000060f889901b1660208201527fffffffff0000000000000000000000000000000000000000000000000000000060e088811b821660218401527fffffffffffffffffffffffffffffffffffffffff000000000000000000000000606089811b821660258601529188901b909216603984015285901b16603d8201526051810183905260718101829052600090609101604051602081830303815290604052805190602001209050979650505050505050565b62003293565b606f5473ffffffffffffffffffffffffffffffffffffffff1615801590620026aa57506000606e54115b156200275157606f54606e5460405160009273ffffffffffffffffffffffffffffffffffffffff1691908381818185875af1925050503d80600081146200270e576040519150601f19603f3d011682016040523d82523d6000602084013e62002713565b606091505b50509050806200274f576040517f6747a28800000000000000000000000000000000000000000000000000000000815260040160405180910390fd5b505b861562002762576200276262001eb1565b50505050620014b860018055565b60685460ff16620027ad576040517f5386698100000000000000000000000000000000000000000000000000000000815260040160405180910390fd5b606880547fffffffffffffffffffffffffffffffffffffffffffffffffffffffffffffff001690556040517f1e5e34eea33501aecf2ebec9fe0e884a40804275ea7fe10b2ba084c8374308b390600090a1565b600881901c60008181526069602052604081208054600160ff861690811b9182189283905592909190818316900362002865576040517f646cf55800000000000000000000000000000000000000000000000000000000815260040160405180910390fd5b5050505050565b6000620028d0826040518060400160405280602081526020017f5361666545524332303a206c6f772d6c6576656c2063616c6c206661696c65648152508573ffffffffffffffffffffffffffffffffffffffff16620033a59092919063ffffffff16565b80519091501562001e355780806020019051810190620028f19190620043c2565b62001e35576040517f08c379a000000000000000000000000000000000000000000000000000000000815260206004820152602a60248201527f5361666545524332303a204552433230206f7065726174696f6e20646964206e60448201527f6f742073756363656564000000000000000000000000000000000000000000006064820152608401620012fe565b600260015403620029ed576040517f08c379a000000000000000000000000000000000000000000000000000000000815260206004820152601f60248201527f5265656e7472616e637947756172643a207265656e7472616e742063616c6c006044820152606401620012fe565b6002600155565b600062002a056004828486620043e2565b62002a10916200440e565b90507f2afa5331000000000000000000000000000000000000000000000000000000007fffffffff0000000000000000000000000000000000000000000000000000000082160162002c8f57600080808080808062002a73896004818d620043e2565b81019062002a82919062004457565b96509650965096509650965096503373ffffffffffffffffffffffffffffffffffffffff168773ffffffffffffffffffffffffffffffffffffffff161462002af6576040517f912ecce700000000000000000000000000000000000000000000000000000000815260040160405180910390fd5b73ffffffffffffffffffffffffffffffffffffffff8616301462002b46576040517f750643af00000000000000000000000000000000000000000000000000000000815260040160405180910390fd5b8a851462002b80576040517f03fffc4b00000000000000000000000000000000000000000000000000000000815260040160405180910390fd5b6040805173ffffffffffffffffffffffffffffffffffffffff89811660248301528881166044830152606482018890526084820187905260ff861660a483015260c4820185905260e48083018590528351808403909101815261010490920183526020820180517bffffffffffffffffffffffffffffffffffffffffffffffffffffffff167fd505accf000000000000000000000000000000000000000000000000000000001790529151918e169162002c3b919062003ef3565b6000604051808303816000865af19150503d806000811462002c7a576040519150601f19603f3d011682016040523d82523d6000602084013e62002c7f565b606091505b5050505050505050505062002865565b7fffffffff0000000000000000000000000000000000000000000000000000000081167f8fcbaf0c000000000000000000000000000000000000000000000000000000001462002d0b576040517fe282c0ba00000000000000000000000000000000000000000000000000000000815260040160405180910390fd5b60008080808080808062002d238a6004818e620043e2565b81019062002d329190620044b2565b975097509750975097509750975097503373ffffffffffffffffffffffffffffffffffffffff168873ffffffffffffffffffffffffffffffffffffffff161462002da8576040517f912ecce700000000000000000000000000000000000000000000000000000000815260040160405180910390fd5b73ffffffffffffffffffffffffffffffffffffffff8716301462002df8576040517f750643af00000000000000000000000000000000000000000000000000000000815260040160405180910390fd5b6040805173ffffffffffffffffffffffffffffffffffffffff8a811660248301528981166044830152606482018990526084820188905286151560a483015260ff861660c483015260e482018590526101048083018590528351808403909101815261012490920183526020820180517bffffffffffffffffffffffffffffffffffffffffffffffffffffffff167f8fcbaf0c000000000000000000000000000000000000000000000000000000001790529151918f169162002ebc919062003ef3565b6000604051808303816000865af19150503d806000811462002efb576040519150601f19603f3d011682016040523d82523d6000602084013e62002f00565b606091505b50505050505050505050505050505050565b60405173ffffffffffffffffffffffffffffffffffffffff8085166024830152831660448201526064810182905262001f869085907f23b872dd000000000000000000000000000000000000000000000000000000009060840162001db2565b60408051600481526024810182526020810180517bffffffffffffffffffffffffffffffffffffffffffffffffffffffff167f06fdde03000000000000000000000000000000000000000000000000000000001790529051606091600091829173ffffffffffffffffffffffffffffffffffffffff86169162002ff6919062003ef3565b600060405180830381855afa9150503d806000811462003033576040519150601f19603f3d011682016040523d82523d6000602084013e62003038565b606091505b5091509150816200307f576040518060400160405280600781526020017f4e4f5f4e414d450000000000000000000000000000000000000000000000000081525062001972565b6200197281620033b6565b60408051600481526024810182526020810180517bffffffffffffffffffffffffffffffffffffffffffffffffffffffff167f95d89b41000000000000000000000000000000000000000000000000000000001790529051606091600091829173ffffffffffffffffffffffffffffffffffffffff8616916200310e919062003ef3565b600060405180830381855afa9150503d80600081146200314b576040519150601f19603f3d011682016040523d82523d6000602084013e62003150565b606091505b5091509150816200307f576040518060400160405280600981526020017f4e4f5f53594d424f4c000000000000000000000000000000000000000000000081525062001972565b60408051600481526024810182526020810180517bffffffffffffffffffffffffffffffffffffffffffffffffffffffff167f313ce5670000000000000000000000000000000000000000000000000000000017905290516000918291829173ffffffffffffffffffffffffffffffffffffffff8616916200321a919062003ef3565b600060405180830381855afa9150503d806000811462003257576040519150601f19603f3d011682016040523d82523d6000602084013e6200325c565b606091505b509150915081801562003270575080516020145b6200327d57601262001972565b808060200190518101906200197291906200453e565b806001620032a46020600262004697565b620032b0919062004333565b60535410620032eb576040517fef5ccf6600000000000000000000000000000000000000000000000000000000815260040160405180910390fd5b6000605360008154620032fe90620040e1565b9182905550905060005b60208110156200339a578082901c6001166001036200334057826033826020811062003338576200333862004083565b015550505050565b6033816020811062003356576200335662004083565b0154604080516020810192909252810184905260600160405160208183030381529060405280519060200120925080806200339190620040e1565b91505062003308565b5062001e35620046a5565b6060620019728484600085620035a6565b60606040825110620033d85781806020019051810190620009ac9190620046d4565b8151602003620035685760005b60208110801562003430575082818151811062003406576200340662004083565b01602001517fff000000000000000000000000000000000000000000000000000000000000001615155b156200344b57806200344281620040e1565b915050620033e5565b806000036200348f57505060408051808201909152601281527f4e4f545f56414c49445f454e434f44494e4700000000000000000000000000006020820152919050565b60008167ffffffffffffffff811115620034ad57620034ad62003b25565b6040519080825280601f01601f191660200182016040528015620034d8576020820181803683370190505b50905060005b828110156200356057848181518110620034fc57620034fc62004083565b602001015160f81c60f81b8282815181106200351c576200351c62004083565b60200101907effffffffffffffffffffffffffffffffffffffffffffffffffffffffffffff1916908160001a905350806200355781620040e1565b915050620034de565b509392505050565b505060408051808201909152601281527f4e4f545f56414c49445f454e434f44494e470000000000000000000000000000602082015290565b919050565b6060824710156200363a576040517f08c379a000000000000000000000000000000000000000000000000000000000815260206004820152602660248201527f416464726573733a20696e73756666696369656e742062616c616e636520666f60448201527f722063616c6c00000000000000000000000000000000000000000000000000006064820152608401620012fe565b6000808673ffffffffffffffffffffffffffffffffffffffff16858760405162003665919062003ef3565b60006040518083038185875af1925050503d8060008114620036a4576040519150601f19603f3d011682016040523d82523d6000602084013e620036a9565b606091505b5091509150620036bc87838387620036c7565b979650505050505050565b60608315620037625782516000036200375a5773ffffffffffffffffffffffffffffffffffffffff85163b6200375a576040517f08c379a000000000000000000000000000000000000000000000000000000000815260206004820152601d60248201527f416464726573733a2063616c6c20746f206e6f6e2d636f6e74726163740000006044820152606401620012fe565b508162001972565b620019728383815115620037795781518083602001fd5b806040517f08c379a0000000000000000000000000000000000000000000000000000000008152600401620012fe9190620038a3565b611b66806200475583390190565b803563ffffffff81168114620035a157600080fd5b73ffffffffffffffffffffffffffffffffffffffff811681146200188e57600080fd5b600080604083850312156200380957600080fd5b6200381483620037bd565b915060208301356200382681620037d2565b809150509250929050565b60005b838110156200384e57818101518382015260200162003834565b50506000910152565b600081518084526200387181602086016020860162003831565b601f017fffffffffffffffffffffffffffffffffffffffffffffffffffffffffffffffe0169290920160200192915050565b602081526000620038b8602083018462003857565b9392505050565b600060208284031215620038d257600080fd5b5035919050565b600060208284031215620038ec57600080fd5b620038b882620037bd565b806104008101831015620009ac57600080fd5b60008083601f8401126200391d57600080fd5b50813567ffffffffffffffff8111156200393657600080fd5b6020830191508360208285010111156200394f57600080fd5b9250929050565b60008060008060008060008060008060006105208c8e0312156200397957600080fd5b620039858d8d620038f7565b9a50620039966104008d01620037bd565b99506104208c013598506104408c01359750620039b76104608d01620037bd565b96506104808c0135620039ca81620037d2565b9550620039db6104a08d01620037bd565b94506104c08c0135620039ee81620037d2565b93506104e08c013592506105008c013567ffffffffffffffff81111562003a1457600080fd5b62003a228e828f016200390a565b915080935050809150509295989b509295989b9093969950565b60006020828403121562003a4f57600080fd5b8135620038b881620037d2565b60ff811681146200188e57600080fd5b600080600080600080600060e0888a03121562003a8857600080fd5b873562003a958162003a5c565b965062003aa560208901620037bd565b9550604088013562003ab781620037d2565b945062003ac760608901620037bd565b9350608088013562003ad981620037d2565b9699959850939692959460a0840135945060c09093013592915050565b6000806040838503121562003b0a57600080fd5b823562003b1781620037d2565b946020939093013593505050565b7f4e487b7100000000000000000000000000000000000000000000000000000000600052604160045260246000fd5b604051601f82017fffffffffffffffffffffffffffffffffffffffffffffffffffffffffffffffe016810167ffffffffffffffff8111828210171562003b9e5762003b9e62003b25565b604052919050565b600067ffffffffffffffff82111562003bc35762003bc362003b25565b50601f017fffffffffffffffffffffffffffffffffffffffffffffffffffffffffffffffe01660200190565b600062003c0662003c008462003ba6565b62003b54565b905082815283838301111562003c1b57600080fd5b828260208301376000602084830101529392505050565b60008060008060008060c0878903121562003c4c57600080fd5b62003c5787620037bd565b9550602087013562003c6981620037d2565b9450604087013562003c7b81620037d2565b9350606087013562003c8d81620037d2565b9250608087013562003c9f81620037d2565b915060a087013567ffffffffffffffff81111562003cbc57600080fd5b8701601f8101891362003cce57600080fd5b62003cdf8982356020840162003bef565b9150509295509295509295565b600080600080600080600060a0888a03121562003d0857600080fd5b62003d1388620037bd565b9650602088013562003d2581620037d2565b9550604088013567ffffffffffffffff8082111562003d4357600080fd5b62003d518b838c016200390a565b909750955060608a013591508082111562003d6b57600080fd5b5062003d7a8a828b016200390a565b909450925050608088013562003d908162003a5c565b8091505092959891949750929550565b80151581146200188e57600080fd5b600080600080600080600060c0888a03121562003dcb57600080fd5b62003dd688620037bd565b9650602088013562003de881620037d2565b955060408801359450606088013562003e0181620037d2565b9350608088013562003e138162003da0565b925060a088013567ffffffffffffffff81111562003e3057600080fd5b62003e3e8a828b016200390a565b989b979a50959850939692959293505050565b600080600080610460858703121562003e6957600080fd5b8435935062003e7c8660208701620038f7565b925062003e8d6104208601620037bd565b939692955092936104400135925050565b600181811c9082168062003eb357607f821691505b60208210810362003eed577f4e487b7100000000000000000000000000000000000000000000000000000000600052602260045260246000fd5b50919050565b6000825162003f0781846020870162003831565b9190910192915050565b600082601f83011262003f2357600080fd5b620038b88383356020850162003bef565b60008060006060848603121562003f4a57600080fd5b833567ffffffffffffffff8082111562003f6357600080fd5b62003f718783880162003f11565b9450602086013591508082111562003f8857600080fd5b5062003f978682870162003f11565b925050604084013562003faa8162003a5c565b809150509250925092565b60608152600062003fca606083018662003857565b828103602084015262003fde818662003857565b91505060ff83166040830152949350505050565b8183528181602085013750600060208284010152600060207fffffffffffffffffffffffffffffffffffffffffffffffffffffffffffffffe0601f840116840101905092915050565b63ffffffff86168152600073ffffffffffffffffffffffffffffffffffffffff808716602084015280861660408401525060806060830152620036bc60808301848662003ff2565b7f4e487b7100000000000000000000000000000000000000000000000000000000600052603260045260246000fd5b7f4e487b7100000000000000000000000000000000000000000000000000000000600052601160045260246000fd5b60007fffffffffffffffffffffffffffffffffffffffffffffffffffffffffffffffff8203620041155762004115620040b2565b5060010190565b601f82111562001e3557600081815260208120601f850160051c81016020861015620041455750805b601f850160051c820191505b81811015620041665782815560010162004151565b505050505050565b815167ffffffffffffffff8111156200418b576200418b62003b25565b620041a3816200419c845462003e9e565b846200411c565b602080601f831160018114620041f95760008415620041c25750858301515b7fffffffffffffffffffffffffffffffffffffffffffffffffffffffffffffffff600386901b1c1916600185901b17855562004166565b6000858152602081207fffffffffffffffffffffffffffffffffffffffffffffffffffffffffffffffe08616915b82811015620042485788860151825594840194600190910190840162004227565b50858210156200428557878501517fffffffffffffffffffffffffffffffffffffffffffffffffffffffffffffffff600388901b60f8161c191681555b5050505050600190811b01905550565b606081526000620042ab60608301878962003ff2565b8281036020840152620042c081868862003ff2565b91505060ff831660408301529695505050505050565b60008351620042ea81846020880162003831565b8351908301906200430081836020880162003831565b01949350505050565b6000602082840312156200431c57600080fd5b5051919050565b8183823760009101908152919050565b81810381811115620009ac57620009ac620040b2565b600061010060ff8b16835263ffffffff808b16602085015273ffffffffffffffffffffffffffffffffffffffff808b166040860152818a1660608601528089166080860152508660a08501528160c0850152620043a98285018762003857565b925080851660e085015250509998505050505050505050565b600060208284031215620043d557600080fd5b8151620038b88162003da0565b60008085851115620043f357600080fd5b838611156200440157600080fd5b5050820193919092039150565b7fffffffff0000000000000000000000000000000000000000000000000000000081358181169160048510156200444f5780818660040360031b1b83161692505b505092915050565b600080600080600080600060e0888a0312156200447357600080fd5b87356200448081620037d2565b965060208801356200449281620037d2565b95506040880135945060608801359350608088013562003ad98162003a5c565b600080600080600080600080610100898b031215620044d057600080fd5b8835620044dd81620037d2565b97506020890135620044ef81620037d2565b9650604089013595506060890135945060808901356200450f8162003da0565b935060a0890135620045218162003a5c565b979a969950949793969295929450505060c08201359160e0013590565b6000602082840312156200455157600080fd5b8151620038b88162003a5c565b600181815b80851115620045bd57817fffffffffffffffffffffffffffffffffffffffffffffffffffffffffffffffff04821115620045a157620045a1620040b2565b80851615620045af57918102915b93841c939080029062004563565b509250929050565b600082620045d657506001620009ac565b81620045e557506000620009ac565b8160018114620045fe5760028114620046095762004629565b6001915050620009ac565b60ff8411156200461d576200461d620040b2565b50506001821b620009ac565b5060208310610133831016604e8410600b84101617156200464e575081810a620009ac565b6200465a83836200455e565b807fffffffffffffffffffffffffffffffffffffffffffffffffffffffffffffffff048211156200468f576200468f620040b2565b029392505050565b6000620038b88383620045c5565b7f4e487b7100000000000000000000000000000000000000000000000000000000600052600160045260246000fd5b600060208284031215620046e757600080fd5b815167ffffffffffffffff811115620046ff57600080fd5b8201601f810184136200471157600080fd5b80516200472262003c008262003ba6565b8181528560208385010111156200473857600080fd5b6200474b82602083016020860162003831565b9594505050505056fe6101006040523480156200001257600080fd5b5060405162001b6638038062001b6683398101604081905262000035916200028d565b82826003620000458382620003a1565b506004620000548282620003a1565b50503360c0525060ff811660e052466080819052620000739062000080565b60a052506200046d915050565b60007f8b73c3c69bb8fe3d512ecc4cf759cc79239f7b179b0ffacaa9a75d522b39400f620000ad6200012e565b805160209182012060408051808201825260018152603160f81b90840152805192830193909352918101919091527fc89efdaa54c0f20c7adf612882df0950f5a951637e0307cdcb4c672f298b8bc66060820152608081018390523060a082015260c001604051602081830303815290604052805190602001209050919050565b6060600380546200013f9062000312565b80601f01602080910402602001604051908101604052809291908181526020018280546200016d9062000312565b8015620001be5780601f106200019257610100808354040283529160200191620001be565b820191906000526020600020905b815481529060010190602001808311620001a057829003601f168201915b5050505050905090565b634e487b7160e01b600052604160045260246000fd5b600082601f830112620001f057600080fd5b81516001600160401b03808211156200020d576200020d620001c8565b604051601f8301601f19908116603f01168101908282118183101715620002385762000238620001c8565b816040528381526020925086838588010111156200025557600080fd5b600091505b838210156200027957858201830151818301840152908201906200025a565b600093810190920192909252949350505050565b600080600060608486031215620002a357600080fd5b83516001600160401b0380821115620002bb57600080fd5b620002c987838801620001de565b94506020860151915080821115620002e057600080fd5b50620002ef86828701620001de565b925050604084015160ff811681146200030757600080fd5b809150509250925092565b600181811c908216806200032757607f821691505b6020821081036200034857634e487b7160e01b600052602260045260246000fd5b50919050565b601f8211156200039c57600081815260208120601f850160051c81016020861015620003775750805b601f850160051c820191505b81811015620003985782815560010162000383565b5050505b505050565b81516001600160401b03811115620003bd57620003bd620001c8565b620003d581620003ce845462000312565b846200034e565b602080601f8311600181146200040d5760008415620003f45750858301515b600019600386901b1c1916600185901b17855562000398565b600085815260208120601f198616915b828110156200043e578886015182559484019460019091019084016200041d565b50858210156200045d5787850151600019600388901b60f8161c191681555b5050505050600190811b01905550565b60805160a05160c05160e0516116aa620004bc6000396000610237015260008181610307015281816105c001526106a70152600061053a015260008181610379015261050401526116aa6000f3fe608060405234801561001057600080fd5b50600436106101775760003560e01c806370a08231116100d8578063a457c2d71161008c578063d505accf11610066578063d505accf1461039b578063dd62ed3e146103ae578063ffa1ad74146103f457600080fd5b8063a457c2d71461034e578063a9059cbb14610361578063cd0d00961461037457600080fd5b806395d89b41116100bd57806395d89b41146102e75780639dc29fac146102ef578063a3c573eb1461030257600080fd5b806370a08231146102915780637ecebe00146102c757600080fd5b806330adf81f1161012f5780633644e515116101145780633644e51514610261578063395093511461026957806340c10f191461027c57600080fd5b806330adf81f14610209578063313ce5671461023057600080fd5b806318160ddd1161016057806318160ddd146101bd57806320606b70146101cf57806323b872dd146101f657600080fd5b806306fdde031461017c578063095ea7b31461019a575b600080fd5b610184610430565b60405161019191906113e4565b60405180910390f35b6101ad6101a8366004611479565b6104c2565b6040519015158152602001610191565b6002545b604051908152602001610191565b6101c17f8b73c3c69bb8fe3d512ecc4cf759cc79239f7b179b0ffacaa9a75d522b39400f81565b6101ad6102043660046114a3565b6104dc565b6101c17f6e71edae12b1b97f4d1f60370fef10105fa2faae0126114a169c64845d6126c981565b60405160ff7f0000000000000000000000000000000000000000000000000000000000000000168152602001610191565b6101c1610500565b6101ad610277366004611479565b61055c565b61028f61028a366004611479565b6105a8565b005b6101c161029f3660046114df565b73ffffffffffffffffffffffffffffffffffffffff1660009081526020819052604090205490565b6101c16102d53660046114df565b60056020526000908152604090205481565b610184610680565b61028f6102fd366004611479565b61068f565b6103297f000000000000000000000000000000000000000000000000000000000000000081565b60405173ffffffffffffffffffffffffffffffffffffffff9091168152602001610191565b6101ad61035c366004611479565b61075e565b6101ad61036f366004611479565b61082f565b6101c17f000000000000000000000000000000000000000000000000000000000000000081565b61028f6103a9366004611501565b61083d565b6101c16103bc366004611574565b73ffffffffffffffffffffffffffffffffffffffff918216600090815260016020908152604080832093909416825291909152205490565b6101846040518060400160405280600181526020017f310000000000000000000000000000000000000000000000000000000000000081525081565b60606003805461043f906115a7565b80601f016020809104026020016040519081016040528092919081815260200182805461046b906115a7565b80156104b85780601f1061048d576101008083540402835291602001916104b8565b820191906000526020600020905b81548152906001019060200180831161049b57829003601f168201915b5050505050905090565b6000336104d0818585610b73565b60019150505b92915050565b6000336104ea858285610d27565b6104f5858585610dfe565b506001949350505050565b60007f00000000000000000000000000000000000000000000000000000000000000004614610537576105324661106d565b905090565b507f000000000000000000000000000000000000000000000000000000000000000090565b33600081815260016020908152604080832073ffffffffffffffffffffffffffffffffffffffff871684529091528120549091906104d090829086906105a3908790611629565b610b73565b3373ffffffffffffffffffffffffffffffffffffffff7f00000000000000000000000000000000000000000000000000000000000000001614610672576040517f08c379a000000000000000000000000000000000000000000000000000000000815260206004820152603060248201527f546f6b656e577261707065643a3a6f6e6c794272696467653a204e6f7420506f60448201527f6c79676f6e5a6b45564d4272696467650000000000000000000000000000000060648201526084015b60405180910390fd5b61067c8282611135565b5050565b60606004805461043f906115a7565b3373ffffffffffffffffffffffffffffffffffffffff7f00000000000000000000000000000000000000000000000000000000000000001614610754576040517f08c379a000000000000000000000000000000000000000000000000000000000815260206004820152603060248201527f546f6b656e577261707065643a3a6f6e6c794272696467653a204e6f7420506f60448201527f6c79676f6e5a6b45564d427269646765000000000000000000000000000000006064820152608401610669565b61067c8282611228565b33600081815260016020908152604080832073ffffffffffffffffffffffffffffffffffffffff8716845290915281205490919083811015610822576040517f08c379a000000000000000000000000000000000000000000000000000000000815260206004820152602560248201527f45524332303a2064656372656173656420616c6c6f77616e63652062656c6f7760448201527f207a65726f0000000000000000000000000000000000000000000000000000006064820152608401610669565b6104f58286868403610b73565b6000336104d0818585610dfe565b834211156108cc576040517f08c379a0000000000000000000000000000000000000000000000000000000008152602060048201526024808201527f546f6b656e577261707065643a3a7065726d69743a204578706972656420706560448201527f726d6974000000000000000000000000000000000000000000000000000000006064820152608401610669565b73ffffffffffffffffffffffffffffffffffffffff8716600090815260056020526040812080547f6e71edae12b1b97f4d1f60370fef10105fa2faae0126114a169c64845d6126c9918a918a918a9190866109268361163c565b9091555060408051602081019690965273ffffffffffffffffffffffffffffffffffffffff94851690860152929091166060840152608083015260a082015260c0810186905260e0016040516020818303038152906040528051906020012090506000610991610500565b6040517f19010000000000000000000000000000000000000000000000000000000000006020820152602281019190915260428101839052606201604080517fffffffffffffffffffffffffffffffffffffffffffffffffffffffffffffffe08184030181528282528051602091820120600080855291840180845281905260ff89169284019290925260608301879052608083018690529092509060019060a0016020604051602081039080840390855afa158015610a55573d6000803e3d6000fd5b50506040517fffffffffffffffffffffffffffffffffffffffffffffffffffffffffffffffe0015191505073ffffffffffffffffffffffffffffffffffffffff811615801590610ad057508973ffffffffffffffffffffffffffffffffffffffff168173ffffffffffffffffffffffffffffffffffffffff16145b610b5c576040517f08c379a000000000000000000000000000000000000000000000000000000000815260206004820152602760248201527f546f6b656e577261707065643a3a7065726d69743a20496e76616c696420736960448201527f676e6174757265000000000000000000000000000000000000000000000000006064820152608401610669565b610b678a8a8a610b73565b50505050505050505050565b73ffffffffffffffffffffffffffffffffffffffff8316610c15576040517f08c379a0000000000000000000000000000000000000000000000000000000008152602060048201526024808201527f45524332303a20617070726f76652066726f6d20746865207a65726f2061646460448201527f72657373000000000000000000000000000000000000000000000000000000006064820152608401610669565b73ffffffffffffffffffffffffffffffffffffffff8216610cb8576040517f08c379a000000000000000000000000000000000000000000000000000000000815260206004820152602260248201527f45524332303a20617070726f766520746f20746865207a65726f20616464726560448201527f73730000000000000000000000000000000000000000000000000000000000006064820152608401610669565b73ffffffffffffffffffffffffffffffffffffffff83811660008181526001602090815260408083209487168084529482529182902085905590518481527f8c5be1e5ebec7d5bd14f71427d1e84f3dd0314c0f7b2291e5b200ac8c7c3b92591015b60405180910390a3505050565b73ffffffffffffffffffffffffffffffffffffffff8381166000908152600160209081526040808320938616835292905220547fffffffffffffffffffffffffffffffffffffffffffffffffffffffffffffffff8114610df85781811015610deb576040517f08c379a000000000000000000000000000000000000000000000000000000000815260206004820152601d60248201527f45524332303a20696e73756666696369656e7420616c6c6f77616e63650000006044820152606401610669565b610df88484848403610b73565b50505050565b73ffffffffffffffffffffffffffffffffffffffff8316610ea1576040517f08c379a000000000000000000000000000000000000000000000000000000000815260206004820152602560248201527f45524332303a207472616e736665722066726f6d20746865207a65726f20616460448201527f64726573730000000000000000000000000000000000000000000000000000006064820152608401610669565b73ffffffffffffffffffffffffffffffffffffffff8216610f44576040517f08c379a000000000000000000000000000000000000000000000000000000000815260206004820152602360248201527f45524332303a207472616e7366657220746f20746865207a65726f206164647260448201527f65737300000000000000000000000000000000000000000000000000000000006064820152608401610669565b73ffffffffffffffffffffffffffffffffffffffff831660009081526020819052604090205481811015610ffa576040517f08c379a000000000000000000000000000000000000000000000000000000000815260206004820152602660248201527f45524332303a207472616e7366657220616d6f756e742065786365656473206260448201527f616c616e636500000000000000000000000000000000000000000000000000006064820152608401610669565b73ffffffffffffffffffffffffffffffffffffffff848116600081815260208181526040808320878703905593871680835291849020805487019055925185815290927fddf252ad1be2c89b69c2b068fc378daa952ba7f163c4a11628f55a4df523b3ef910160405180910390a3610df8565b60007f8b73c3c69bb8fe3d512ecc4cf759cc79239f7b179b0ffacaa9a75d522b39400f611098610430565b8051602091820120604080518082018252600181527f310000000000000000000000000000000000000000000000000000000000000090840152805192830193909352918101919091527fc89efdaa54c0f20c7adf612882df0950f5a951637e0307cdcb4c672f298b8bc66060820152608081018390523060a082015260c001604051602081830303815290604052805190602001209050919050565b73ffffffffffffffffffffffffffffffffffffffff82166111b2576040517f08c379a000000000000000000000000000000000000000000000000000000000815260206004820152601f60248201527f45524332303a206d696e7420746f20746865207a65726f2061646472657373006044820152606401610669565b80600260008282546111c49190611629565b909155505073ffffffffffffffffffffffffffffffffffffffff8216600081815260208181526040808320805486019055518481527fddf252ad1be2c89b69c2b068fc378daa952ba7f163c4a11628f55a4df523b3ef910160405180910390a35050565b73ffffffffffffffffffffffffffffffffffffffff82166112cb576040517f08c379a000000000000000000000000000000000000000000000000000000000815260206004820152602160248201527f45524332303a206275726e2066726f6d20746865207a65726f2061646472657360448201527f73000000000000000000000000000000000000000000000000000000000000006064820152608401610669565b73ffffffffffffffffffffffffffffffffffffffff821660009081526020819052604090205481811015611381576040517f08c379a000000000000000000000000000000000000000000000000000000000815260206004820152602260248201527f45524332303a206275726e20616d6f756e7420657863656564732062616c616e60448201527f63650000000000000000000000000000000000000000000000000000000000006064820152608401610669565b73ffffffffffffffffffffffffffffffffffffffff83166000818152602081815260408083208686039055600280548790039055518581529192917fddf252ad1be2c89b69c2b068fc378daa952ba7f163c4a11628f55a4df523b3ef9101610d1a565b600060208083528351808285015260005b81811015611411578581018301518582016040015282016113f5565b5060006040828601015260407fffffffffffffffffffffffffffffffffffffffffffffffffffffffffffffffe0601f8301168501019250505092915050565b803573ffffffffffffffffffffffffffffffffffffffff8116811461147457600080fd5b919050565b6000806040838503121561148c57600080fd5b61149583611450565b946020939093013593505050565b6000806000606084860312156114b857600080fd5b6114c184611450565b92506114cf60208501611450565b9150604084013590509250925092565b6000602082840312156114f157600080fd5b6114fa82611450565b9392505050565b600080600080600080600060e0888a03121561151c57600080fd5b61152588611450565b965061153360208901611450565b95506040880135945060608801359350608088013560ff8116811461155757600080fd5b9699959850939692959460a0840135945060c09093013592915050565b6000806040838503121561158757600080fd5b61159083611450565b915061159e60208401611450565b90509250929050565b600181811c908216806115bb57607f821691505b6020821081036115f4577f4e487b7100000000000000000000000000000000000000000000000000000000600052602260045260246000fd5b50919050565b7f4e487b7100000000000000000000000000000000000000000000000000000000600052601160045260246000fd5b808201808211156104d6576104d66115fa565b60007fffffffffffffffffffffffffffffffffffffffffffffffffffffffffffffffff820361166d5761166d6115fa565b506001019056fea26469706673582212206fe049be388a1d04319b9913fe6d100c4c8e272fe0f5748eb056bd0622beabcc64736f6c63430008140033a2646970667358221220b28409d3b9935487f56d6ccaaad08b49210c2982a6e36f8f348e193fb7394a7364736f6c63430008140033",
  "linkReferences": {},
  "deployedLinkReferences": {}
}